{"contracts/Pool.sol":{"Pool":{"abi":[{"inputs":[{"internalType":"address","name":"token0","type":"address"},{"internalType":"address","name":"token1","type":"address"}],"stateMutability":"nonpayable","type":"constructor"},{"inputs":[{"internalType":"address","name":"spender","type":"address"},{"internalType":"uint256","name":"allowance","type":"uint256"},{"internalType":"uint256","name":"needed","type":"uint256"}],"name":"ERC20InsufficientAllowance","type":"error"},{"inputs":[{"internalType":"address","name":"sender","type":"address"},{"internalType":"uint256","name":"balance","type":"uint256"},{"internalType":"uint256","name":"needed","type":"uint256"}],"name":"ERC20InsufficientBalance","type":"error"},{"inputs":[{"internalType":"address","name":"approver","type":"address"}],"name":"ERC20InvalidApprover","type":"error"},{"inputs":[{"internalType":"address","name":"receiver","type":"address"}],"name":"ERC20InvalidReceiver","type":"error"},{"inputs":[{"internalType":"address","name":"sender","type":"address"}],"name":"ERC20InvalidSender","type":"error"},{"inputs":[{"internalType":"address","name":"spender","type":"address"}],"name":"ERC20InvalidSpender","type":"error"},{"inputs":[],"name":"ReentrancyGuardReentrantCall","type":"error"},{"anonymous":false,"inputs":[{"indexed":true,"internalType":"uint256","name":"lpToken","type":"uint256"},{"indexed":false,"internalType":"address","name":"token0","type":"address"},{"indexed":true,"internalType":"uint256","name":"amount0","type":"uint256"},{"indexed":false,"internalType":"address","name":"token1","type":"address"},{"indexed":true,"internalType":"uint256","name":"amount1","type":"uint256"}],"name":"AddedLiquidity","type":"event"},{"anonymous":false,"inputs":[{"indexed":true,"internalType":"address","name":"owner","type":"address"},{"indexed":true,"internalType":"address","name":"spender","type":"address"},{"indexed":false,"internalType":"uint256","name":"value","type":"uint256"}],"name":"Approval","type":"event"},{"anonymous":false,"inputs":[{"indexed":false,"internalType":"address","name":"tokenIn","type":"address"},{"indexed":true,"internalType":"uint256","name":"amountIn","type":"uint256"},{"indexed":false,"internalType":"address","name":"tokenOut","type":"address"},{"indexed":true,"internalType":"uint256","name":"amountOut","type":"uint256"},{"indexed":false,"internalType":"uint256","name":"feeAmount","type":"uint256"}],"name":"Swapped","type":"event"},{"anonymous":false,"inputs":[{"indexed":true,"internalType":"address","name":"from","type":"address"},{"indexed":true,"internalType":"address","name":"to","type":"address"},{"indexed":false,"internalType":"uint256","name":"value","type":"uint256"}],"name":"Transfer","type":"event"},{"anonymous":false,"inputs":[{"indexed":true,"internalType":"uint256","name":"lpToken","type":"uint256"},{"indexed":false,"internalType":"address","name":"token0","type":"address"},{"indexed":true,"internalType":"uint256","name":"amount0","type":"uint256"},{"indexed":false,"internalType":"address","name":"token1","type":"address"},{"indexed":true,"internalType":"uint256","name":"amount1","type":"uint256"}],"name":"WithdrewLiquidity","type":"event"},{"inputs":[{"internalType":"uint256","name":"amount0","type":"uint256"}],"name":"addLiquidity","outputs":[],"stateMutability":"nonpayable","type":"function"},{"inputs":[{"internalType":"address","name":"owner","type":"address"},{"internalType":"address","name":"spender","type":"address"}],"name":"allowance","outputs":[{"internalType":"uint256","name":"","type":"uint256"}],"stateMutability":"view","type":"function"},{"inputs":[{"internalType":"address","name":"spender","type":"address"},{"internalType":"uint256","name":"value","type":"uint256"}],"name":"approve","outputs":[{"internalType":"bool","name":"","type":"bool"}],"stateMutability":"nonpayable","type":"function"},{"inputs":[{"internalType":"address","name":"account","type":"address"}],"name":"balanceOf","outputs":[{"internalType":"uint256","name":"","type":"uint256"}],"stateMutability":"view","type":"function"},{"inputs":[{"internalType":"address","name":"tokenIn","type":"address"},{"internalType":"uint256","name":"amountIn","type":"uint256"},{"internalType":"address","name":"tokenOut","type":"address"}],"name":"compareOutputs","outputs":[{"internalType":"uint256","name":"withFee","type":"uint256"},{"internalType":"uint256","name":"withoutFee","type":"uint256"},{"internalType":"uint256","name":"feeDifference","type":"uint256"}],"stateMutability":"view","type":"function"},{"inputs":[],"name":"decimals","outputs":[{"internalType":"uint8","name":"","type":"uint8"}],"stateMutability":"view","type":"function"},{"inputs":[{"internalType":"address","name":"tokenIn","type":"address"},{"internalType":"uint256","name":"amountIn","type":"uint256"},{"internalType":"address","name":"tokenOut","type":"address"}],"name":"getAmountOut","outputs":[{"internalType":"uint256","name":"","type":"uint256"}],"stateMutability":"view","type":"function"},{"inputs":[{"internalType":"address","name":"tokenIn","type":"address"},{"internalType":"uint256","name":"amountIn","type":"uint256"},{"internalType":"address","name":"tokenOut","type":"address"}],"name":"getAmountOutWithoutFee","outputs":[{"internalType":"uint256","name":"","type":"uint256"}],"stateMutability":"view","type":"function"},{"inputs":[{"internalType":"uint256","name":"amount0","type":"uint256"}],"name":"getRequiredAmount1","outputs":[{"internalType":"uint256","name":"","type":"uint256"}],"stateMutability":"view","type":"function"},{"inputs":[],"name":"getReserves","outputs":[{"internalType":"uint256","name":"","type":"uint256"},{"internalType":"uint256","name":"","type":"uint256"}],"stateMutability":"view","type":"function"},{"inputs":[],"name":"getToken0Address","outputs":[{"internalType":"address","name":"","type":"address"}],"stateMutability":"view","type":"function"},{"inputs":[],"name":"getToken1Address","outputs":[{"internalType":"address","name":"","type":"address"}],"stateMutability":"view","type":"function"},{"inputs":[],"name":"name","outputs":[{"internalType":"string","name":"","type":"string"}],"stateMutability":"view","type":"function"},{"inputs":[{"internalType":"address","name":"tokenIn","type":"address"},{"internalType":"uint256","name":"amountIn","type":"uint256"},{"internalType":"address","name":"tokenOut","type":"address"}],"name":"swap","outputs":[],"stateMutability":"nonpayable","type":"function"},{"inputs":[],"name":"symbol","outputs":[{"internalType":"string","name":"","type":"string"}],"stateMutability":"view","type":"function"},{"inputs":[],"name":"totalSupply","outputs":[{"internalType":"uint256","name":"","type":"uint256"}],"stateMutability":"view","type":"function"},{"inputs":[{"internalType":"address","name":"to","type":"address"},{"internalType":"uint256","name":"value","type":"uint256"}],"name":"transfer","outputs":[{"internalType":"bool","name":"","type":"bool"}],"stateMutability":"nonpayable","type":"function"},{"inputs":[{"internalType":"address","name":"from","type":"address"},{"internalType":"address","name":"to","type":"address"},{"internalType":"uint256","name":"value","type":"uint256"}],"name":"transferFrom","outputs":[{"internalType":"bool","name":"","type":"bool"}],"stateMutability":"nonpayable","type":"function"},{"inputs":[{"internalType":"uint256","name":"lpAmount","type":"uint256"}],"name":"withdrawLiquidity","outputs":[],"stateMutability":"nonpayable","type":"function"}],"evm":{"bytecode":{"linkReferences":{},"object":"6101006040523480156200001257600080fd5b5060405162001bcc38038062001bcc8339810160408190526200003591620000e0565b6040518060400160405280600781526020016626282a37b5b2b760c91b8152506040518060400160405280600381526020016213141560ea1b81525081818160039081620000849190620001bd565b506004620000938282620001bd565b505060016005555050506001600160a01b039182166080819052911660a081905260c09190915260e05262000289565b80516001600160a01b0381168114620000db57600080fd5b919050565b60008060408385031215620000f457600080fd5b620000ff83620000c3565b91506200010f60208401620000c3565b90509250929050565b634e487b7160e01b600052604160045260246000fd5b600181811c908216806200014357607f821691505b6020821081036200016457634e487b7160e01b600052602260045260246000fd5b50919050565b601f821115620001b857600081815260208120601f850160051c81016020861015620001935750805b601f850160051c820191505b81811015620001b4578281556001016200019f565b5050505b505050565b81516001600160401b03811115620001d957620001d962000118565b620001f181620001ea84546200012e565b846200016a565b602080601f831160018114620002295760008415620002105750858301515b600019600386901b1c1916600185901b178555620001b4565b600085815260208120601f198616915b828110156200025a5788860151825594840194600190910190840162000239565b5085821015620002795787850151600019600388901b60f8161c191681555b5050505050600190811b01905550565b60805160a05160c05160e0516118766200035660003960008181610181015281816103230152818161055c015281816106080152818161082a01528181610be301528181610c5901528181610d4e01528181610dfb015261115701526000818161014e015281816102bb01528181610509015281816105bb015281816108050152818161097d01528181610ac001528181610c3401528181610d1301528181610dc0015261112401526000818161073d0152610b1a01526000818161066701526109f601526118766000f3fe608060405234801561001057600080fd5b50600436106101215760003560e01c80636d069a67116100ad57806395d89b411161007157806395d89b4114610306578063a9059cbb1461030e578063b955984614610321578063dd62ed3e14610347578063ff9c8ac61461038057600080fd5b80636d069a671461024f57806370a08231146102625780637db9e37f1461028b5780638f3504d7146102b9578063929f8c75146102f357600080fd5b806318160ddd116100f457806318160ddd146101f557806323b872dd14610207578063313ce5671461021a5780634fa186ba1461022957806351c6590a1461023c57600080fd5b806306fdde03146101265780630902f1ac14610144578063095ea7b3146101bd5780630a861f2a146101e0575b600080fd5b61012e610393565b60405161013b91906115d1565b60405180910390f35b6001600160a01b037f00000000000000000000000000000000000000000000000000000000000000008116600090815260066020526040808220547f000000000000000000000000000000000000000000000000000000000000000090931682529020546040805192835260208301919091520161013b565b6101d06101cb36600461163b565b610425565b604051901515815260200161013b565b6101f36101ee366004611665565b61043f565b005b6002545b60405190815260200161013b565b6101d061021536600461167e565b610890565b6040516012815260200161013b565b6101f96102373660046116ba565b6108b4565b6101f361024a366004611665565b610904565b6101f361025d3660046116ba565b610cbb565b6101f96102703660046116f6565b6001600160a01b031660009081526020819052604090205490565b61029e6102993660046116ba565b6110e6565b6040805193845260208401929092529082015260600161013b565b7f00000000000000000000000000000000000000000000000000000000000000005b6040516001600160a01b03909116815260200161013b565b6101f9610301366004611665565b61111a565b61012e6111b9565b6101d061031c36600461163b565b6111c8565b7f00000000000000000000000000000000000000000000000000000000000000006102db565b6101f9610355366004611718565b6001600160a01b03918216600090815260016020908152604080832093909416825291909152205490565b6101f961038e3660046116ba565b6111d6565b6060600380546103a29061174b565b80601f01602080910402602001604051908101604052809291908181526020018280546103ce9061174b565b801561041b5780601f106103f05761010080835404028352916020019161041b565b820191906000526020600020905b8154815290600101906020018083116103fe57829003601f168201915b5050505050905090565b60003361043381858561124d565b60019150505b92915050565b61044761125a565b6000811161049c5760405162461bcd60e51b815260206004820152601d60248201527f416d6f756e74206d7573742062652067726561746572207468616e203000000060448201526064015b60405180910390fd5b336000908152602081905260409020548111156104f45760405162461bcd60e51b8152602060048201526016602482015275496e73756666696369656e74204c5020746f6b656e7360501b6044820152606401610493565b60006104ff60025490565b6001600160a01b037f000000000000000000000000000000000000000000000000000000000000000016600090815260066020526040812054919250908290610548908561179b565b61055291906117b2565b6001600160a01b037f00000000000000000000000000000000000000000000000000000000000000001660009081526006602052604081205491925090839061059b908661179b565b6105a591906117b2565b90506105b13385611284565b6001600160a01b037f000000000000000000000000000000000000000000000000000000000000000016600090815260066020526040812080548492906105f99084906117d4565b90915550506001600160a01b037f000000000000000000000000000000000000000000000000000000000000000016600090815260066020526040812080548392906106469084906117d4565b909155505060405163a9059cbb60e01b8152336004820152602481018390527f00000000000000000000000000000000000000000000000000000000000000006001600160a01b03169063a9059cbb906044016020604051808303816000875af11580156106b8573d6000803e3d6000fd5b505050506040513d601f19601f820116820180604052508101906106dc91906117e7565b6107215760405162461bcd60e51b8152602060048201526016602482015275151c985b9cd9995c881d1bdad95b8c0819985a5b195960521b6044820152606401610493565b60405163a9059cbb60e01b8152336004820152602481018290527f00000000000000000000000000000000000000000000000000000000000000006001600160a01b03169063a9059cbb906044016020604051808303816000875af115801561078e573d6000803e3d6000fd5b505050506040513d601f19601f820116820180604052508101906107b291906117e7565b6107f75760405162461bcd60e51b8152602060048201526016602482015275151c985b9cd9995c881d1bdad95b8c4819985a5b195960521b6044820152606401610493565b604080516001600160a01b037f0000000000000000000000000000000000000000000000000000000000000000811682527f00000000000000000000000000000000000000000000000000000000000000001660208201528291849187917f62121ad459acfb016cc0335a219566240380160df893109729d63ab4ce259618910160405180910390a450505061088d6001600555565b50565b60003361089e8582856112be565b6108a985858561133d565b506001949350505050565b6001600160a01b03808216600090815260066020526040808220549286168252812054909190826108e58683611809565b6108ef878561179b565b6108f991906117b2565b979650505050505050565b61090c61125a565b6000811161095c5760405162461bcd60e51b815260206004820152601d60248201527f416d6f756e74206d7573742062652067726561746572207468616e20300000006044820152606401610493565b60006109678261111a565b905060008061097560025490565b11156109d2577f00000000000000000000000000000000000000000000000000000000000000006001600160a01b03166000908152600660205260409020546002546109c1908561179b565b6109cb91906117b2565b90506109d5565b50815b6109df338261139c565b6040516323b872dd60e01b81526001600160a01b037f000000000000000000000000000000000000000000000000000000000000000016906323b872dd90610a2f9033903090889060040161181c565b6020604051808303816000875af1158015610a4e573d6000803e3d6000fd5b505050506040513d601f19601f82011682018060405250810190610a7291906117e7565b610ab65760405162461bcd60e51b8152602060048201526015602482015274151c985b9cd9995c88105b1c1a184819985a5b1959605a1b6044820152606401610493565b6001600160a01b037f00000000000000000000000000000000000000000000000000000000000000001660009081526006602052604081208054859290610afe908490611809565b90915550506040516323b872dd60e01b81526001600160a01b037f000000000000000000000000000000000000000000000000000000000000000016906323b872dd90610b539033903090879060040161181c565b6020604051808303816000875af1158015610b72573d6000803e3d6000fd5b505050506040513d601f19601f82011682018060405250810190610b9691906117e7565b610bd95760405162461bcd60e51b8152602060048201526014602482015273151c985b9cd9995c8810995d184819985a5b195960621b6044820152606401610493565b6001600160a01b037f00000000000000000000000000000000000000000000000000000000000000001660009081526006602052604081208054849290610c21908490611809565b9091555050604080516001600160a01b037f0000000000000000000000000000000000000000000000000000000000000000811682527f00000000000000000000000000000000000000000000000000000000000000001660208201528391859184917f86c3929a230b573aa47cd83759aed11b800d147abc23e246dfeb5ebbd7a110e3910160405180910390a4505061088d6001600555565b610cc361125a565b806001600160a01b0316836001600160a01b031603610d115760405162461bcd60e51b815260206004820152600a60248201526929b0b6b2903a37b5b2b760b11b6044820152606401610493565b7f00000000000000000000000000000000000000000000000000000000000000006001600160a01b0316836001600160a01b03161480610d8257507f00000000000000000000000000000000000000000000000000000000000000006001600160a01b0316836001600160a01b0316145b610dbe5760405162461bcd60e51b815260206004820152600d60248201526c24b73b30b634b2103a37b5b2b760991b6044820152606401610493565b7f00000000000000000000000000000000000000000000000000000000000000006001600160a01b0316816001600160a01b03161480610e2f57507f00000000000000000000000000000000000000000000000000000000000000006001600160a01b0316816001600160a01b0316145b610e6b5760405162461bcd60e51b815260206004820152600d60248201526c24b73b30b634b2103a37b5b2b760991b6044820152606401610493565b60008211610ea95760405162461bcd60e51b815260206004820152600b60248201526a16995c9bc8185b5bdd5b9d60aa1b6044820152606401610493565b60006103e8610eb960038561179b565b610ec391906117b2565b90506000610ed182856117d4565b90506000610ee08683866111d6565b6040516323b872dd60e01b81529091506001600160a01b038716906323b872dd90610f1390339030908a9060040161181c565b6020604051808303816000875af1158015610f32573d6000803e3d6000fd5b505050506040513d601f19601f82011682018060405250810190610f5691906117e7565b610f905760405162461bcd60e51b815260206004820152600b60248201526a14ddd85c0811985a5b195960aa1b6044820152606401610493565b60405163a9059cbb60e01b8152336004820152602481018290526001600160a01b0385169063a9059cbb906044016020604051808303816000875af1158015610fdd573d6000803e3d6000fd5b505050506040513d601f19601f8201168201806040525081019061100191906117e7565b61103b5760405162461bcd60e51b815260206004820152600b60248201526a14ddd85c0811985a5b195960aa1b6044820152606401610493565b6001600160a01b03861660009081526006602052604081208054879290611063908490611809565b90915550506001600160a01b038416600090815260066020526040812080548392906110909084906117d4565b9250508190555080857fd83a63a0ebf8fb6a344f0e3dc86dfc975e6009f82e455acc6622cc3fd7c5928d8887876040516110cc9392919061181c565b60405180910390a35050506110e16001600555565b505050565b60008060006110f68686866111d6565b92506111038686866108b4565b915061110f83836117d4565b905093509350939050565b6001600160a01b037f00000000000000000000000000000000000000000000000000000000000000008116600090815260066020526040808220547f0000000000000000000000000000000000000000000000000000000000000000909316825281205490919081158061118c575080155b156111a45761119c60028561179b565b949350505050565b816111af828661179b565b61119c91906117b2565b6060600480546103a29061174b565b60003361043381858561133d565b6001600160a01b03808216600090815260066020526040808220549286168252812054909190826103e861120b6003826117d4565b611215908861179b565b61121f91906117b2565b9050600061122d8284611809565b611237838661179b565b61124191906117b2565b98975050505050505050565b6110e183838360016113d2565b60026005540361127d57604051633ee5aeb560e01b815260040160405180910390fd5b6002600555565b6001600160a01b0382166112ae57604051634b637e8f60e11b815260006004820152602401610493565b6112ba826000836114a7565b5050565b6001600160a01b03838116600090815260016020908152604080832093861683529290522054600019811015611337578181101561132857604051637dc7a0d960e11b81526001600160a01b03841660048201526024810182905260448101839052606401610493565b611337848484840360006113d2565b50505050565b6001600160a01b03831661136757604051634b637e8f60e11b815260006004820152602401610493565b6001600160a01b0382166113915760405163ec442f0560e01b815260006004820152602401610493565b6110e18383836114a7565b6001600160a01b0382166113c65760405163ec442f0560e01b815260006004820152602401610493565b6112ba600083836114a7565b6001600160a01b0384166113fc5760405163e602df0560e01b815260006004820152602401610493565b6001600160a01b03831661142657604051634a1406b160e11b815260006004820152602401610493565b6001600160a01b038085166000908152600160209081526040808320938716835292905220829055801561133757826001600160a01b0316846001600160a01b03167f8c5be1e5ebec7d5bd14f71427d1e84f3dd0314c0f7b2291e5b200ac8c7c3b9258460405161149991815260200190565b60405180910390a350505050565b6001600160a01b0383166114d25780600260008282546114c79190611809565b909155506115449050565b6001600160a01b038316600090815260208190526040902054818110156115255760405163391434e360e21b81526001600160a01b03851660048201526024810182905260448101839052606401610493565b6001600160a01b03841660009081526020819052604090209082900390555b6001600160a01b0382166115605760028054829003905561157f565b6001600160a01b03821660009081526020819052604090208054820190555b816001600160a01b0316836001600160a01b03167fddf252ad1be2c89b69c2b068fc378daa952ba7f163c4a11628f55a4df523b3ef836040516115c491815260200190565b60405180910390a3505050565b600060208083528351808285015260005b818110156115fe578581018301518582016040015282016115e2565b506000604082860101526040601f19601f8301168501019250505092915050565b80356001600160a01b038116811461163657600080fd5b919050565b6000806040838503121561164e57600080fd5b6116578361161f565b946020939093013593505050565b60006020828403121561167757600080fd5b5035919050565b60008060006060848603121561169357600080fd5b61169c8461161f565b92506116aa6020850161161f565b9150604084013590509250925092565b6000806000606084860312156116cf57600080fd5b6116d88461161f565b9250602084013591506116ed6040850161161f565b90509250925092565b60006020828403121561170857600080fd5b6117118261161f565b9392505050565b6000806040838503121561172b57600080fd5b6117348361161f565b91506117426020840161161f565b90509250929050565b600181811c9082168061175f57607f821691505b60208210810361177f57634e487b7160e01b600052602260045260246000fd5b50919050565b634e487b7160e01b600052601160045260246000fd5b808202811582820484141761043957610439611785565b6000826117cf57634e487b7160e01b600052601260045260246000fd5b500490565b8181038181111561043957610439611785565b6000602082840312156117f957600080fd5b8151801515811461171157600080fd5b8082018082111561043957610439611785565b6001600160a01b03938416815291909216602082015260408101919091526060019056fea264697066735822122053edd78febef2ff5c0bf146b58163ec2c8b32f4a96ee393ebda662085a50c76664736f6c63430008140033","opcodes":"PUSH2 0x100 PUSH1 0x40 MSTORE CALLVALUE DUP1 ISZERO PUSH3 0x12 JUMPI PUSH1 0x0 DUP1 REVERT JUMPDEST POP PUSH1 0x40 MLOAD PUSH3 0x1BCC CODESIZE SUB DUP1 PUSH3 0x1BCC DUP4 CODECOPY DUP2 ADD PUSH1 0x40 DUP2 SWAP1 MSTORE PUSH3 0x35 SWAP2 PUSH3 0xE0 JUMP JUMPDEST PUSH1 0x40 MLOAD DUP1 PUSH1 0x40 ADD PUSH1 0x40 MSTORE DUP1 PUSH1 0x7 DUP2 MSTORE PUSH1 0x20 ADD PUSH7 0x26282A37B5B2B7 PUSH1 0xC9 SHL DUP2 MSTORE POP PUSH1 0x40 MLOAD DUP1 PUSH1 0x40 ADD PUSH1 0x40 MSTORE DUP1 PUSH1 0x3 DUP2 MSTORE PUSH1 0x20 ADD PUSH3 0x131415 PUSH1 0xEA SHL DUP2 MSTORE POP DUP2 DUP2 DUP2 PUSH1 0x3 SWAP1 DUP2 PUSH3 0x84 SWAP2 SWAP1 PUSH3 0x1BD JUMP JUMPDEST POP PUSH1 0x4 PUSH3 0x93 DUP3 DUP3 PUSH3 0x1BD JUMP JUMPDEST POP POP PUSH1 0x1 PUSH1 0x5 SSTORE POP POP POP PUSH1 0x1 PUSH1 0x1 PUSH1 0xA0 SHL SUB SWAP2 DUP3 AND PUSH1 0x80 DUP2 SWAP1 MSTORE SWAP2 AND PUSH1 0xA0 DUP2 SWAP1 MSTORE PUSH1 0xC0 SWAP2 SWAP1 SWAP2 MSTORE PUSH1 0xE0 MSTORE PUSH3 0x289 JUMP JUMPDEST DUP1 MLOAD PUSH1 0x1 PUSH1 0x1 PUSH1 0xA0 SHL SUB DUP2 AND DUP2 EQ PUSH3 0xDB JUMPI PUSH1 0x0 DUP1 REVERT JUMPDEST SWAP2 SWAP1 POP JUMP JUMPDEST PUSH1 0x0 DUP1 PUSH1 0x40 DUP4 DUP6 SUB SLT ISZERO PUSH3 0xF4 JUMPI PUSH1 0x0 DUP1 REVERT JUMPDEST PUSH3 0xFF DUP4 PUSH3 0xC3 JUMP JUMPDEST SWAP2 POP PUSH3 0x10F PUSH1 0x20 DUP5 ADD PUSH3 0xC3 JUMP JUMPDEST SWAP1 POP SWAP3 POP SWAP3 SWAP1 POP JUMP JUMPDEST PUSH4 0x4E487B71 PUSH1 0xE0 SHL PUSH1 0x0 MSTORE PUSH1 0x41 PUSH1 0x4 MSTORE PUSH1 0x24 PUSH1 0x0 REVERT JUMPDEST PUSH1 0x1 DUP2 DUP2 SHR SWAP1 DUP3 AND DUP1 PUSH3 0x143 JUMPI PUSH1 0x7F DUP3 AND SWAP2 POP JUMPDEST PUSH1 0x20 DUP3 LT DUP2 SUB PUSH3 0x164 JUMPI PUSH4 0x4E487B71 PUSH1 0xE0 SHL PUSH1 0x0 MSTORE PUSH1 0x22 PUSH1 0x4 MSTORE PUSH1 0x24 PUSH1 0x0 REVERT JUMPDEST POP SWAP2 SWAP1 POP JUMP JUMPDEST PUSH1 0x1F DUP3 GT ISZERO PUSH3 0x1B8 JUMPI PUSH1 0x0 DUP2 DUP2 MSTORE PUSH1 0x20 DUP2 KECCAK256 PUSH1 0x1F DUP6 ADD PUSH1 0x5 SHR DUP2 ADD PUSH1 0x20 DUP7 LT ISZERO PUSH3 0x193 JUMPI POP DUP1 JUMPDEST PUSH1 0x1F DUP6 ADD PUSH1 0x5 SHR DUP3 ADD SWAP2 POP JUMPDEST DUP2 DUP2 LT ISZERO PUSH3 0x1B4 JUMPI DUP3 DUP2 SSTORE PUSH1 0x1 ADD PUSH3 0x19F JUMP JUMPDEST POP POP POP JUMPDEST POP POP POP JUMP JUMPDEST DUP2 MLOAD PUSH1 0x1 PUSH1 0x1 PUSH1 0x40 SHL SUB DUP2 GT ISZERO PUSH3 0x1D9 JUMPI PUSH3 0x1D9 PUSH3 0x118 JUMP JUMPDEST PUSH3 0x1F1 DUP2 PUSH3 0x1EA DUP5 SLOAD PUSH3 0x12E JUMP JUMPDEST DUP5 PUSH3 0x16A JUMP JUMPDEST PUSH1 0x20 DUP1 PUSH1 0x1F DUP4 GT PUSH1 0x1 DUP2 EQ PUSH3 0x229 JUMPI PUSH1 0x0 DUP5 ISZERO PUSH3 0x210 JUMPI POP DUP6 DUP4 ADD MLOAD JUMPDEST PUSH1 0x0 NOT PUSH1 0x3 DUP7 SWAP1 SHL SHR NOT AND PUSH1 0x1 DUP6 SWAP1 SHL OR DUP6 SSTORE PUSH3 0x1B4 JUMP JUMPDEST PUSH1 0x0 DUP6 DUP2 MSTORE PUSH1 0x20 DUP2 KECCAK256 PUSH1 0x1F NOT DUP7 AND SWAP2 JUMPDEST DUP3 DUP2 LT ISZERO PUSH3 0x25A JUMPI DUP9 DUP7 ADD MLOAD DUP3 SSTORE SWAP5 DUP5 ADD SWAP5 PUSH1 0x1 SWAP1 SWAP2 ADD SWAP1 DUP5 ADD PUSH3 0x239 JUMP JUMPDEST POP DUP6 DUP3 LT ISZERO PUSH3 0x279 JUMPI DUP8 DUP6 ADD MLOAD PUSH1 0x0 NOT PUSH1 0x3 DUP9 SWAP1 SHL PUSH1 0xF8 AND SHR NOT AND DUP2 SSTORE JUMPDEST POP POP POP POP POP PUSH1 0x1 SWAP1 DUP2 SHL ADD SWAP1 SSTORE POP JUMP JUMPDEST PUSH1 0x80 MLOAD PUSH1 0xA0 MLOAD PUSH1 0xC0 MLOAD PUSH1 0xE0 MLOAD PUSH2 0x1876 PUSH3 0x356 PUSH1 0x0 CODECOPY PUSH1 0x0 DUP2 DUP2 PUSH2 0x181 ADD MSTORE DUP2 DUP2 PUSH2 0x323 ADD MSTORE DUP2 DUP2 PUSH2 0x55C ADD MSTORE DUP2 DUP2 PUSH2 0x608 ADD MSTORE DUP2 DUP2 PUSH2 0x82A ADD MSTORE DUP2 DUP2 PUSH2 0xBE3 ADD MSTORE DUP2 DUP2 PUSH2 0xC59 ADD MSTORE DUP2 DUP2 PUSH2 0xD4E ADD MSTORE DUP2 DUP2 PUSH2 0xDFB ADD MSTORE PUSH2 0x1157 ADD MSTORE PUSH1 0x0 DUP2 DUP2 PUSH2 0x14E ADD MSTORE DUP2 DUP2 PUSH2 0x2BB ADD MSTORE DUP2 DUP2 PUSH2 0x509 ADD MSTORE DUP2 DUP2 PUSH2 0x5BB ADD MSTORE DUP2 DUP2 PUSH2 0x805 ADD MSTORE DUP2 DUP2 PUSH2 0x97D ADD MSTORE DUP2 DUP2 PUSH2 0xAC0 ADD MSTORE DUP2 DUP2 PUSH2 0xC34 ADD MSTORE DUP2 DUP2 PUSH2 0xD13 ADD MSTORE DUP2 DUP2 PUSH2 0xDC0 ADD MSTORE PUSH2 0x1124 ADD MSTORE PUSH1 0x0 DUP2 DUP2 PUSH2 0x73D ADD MSTORE PUSH2 0xB1A ADD MSTORE PUSH1 0x0 DUP2 DUP2 PUSH2 0x667 ADD MSTORE PUSH2 0x9F6 ADD MSTORE PUSH2 0x1876 PUSH1 0x0 RETURN INVALID PUSH1 0x80 PUSH1 0x40 MSTORE CALLVALUE DUP1 ISZERO PUSH2 0x10 JUMPI PUSH1 0x0 DUP1 REVERT JUMPDEST POP PUSH1 0x4 CALLDATASIZE LT PUSH2 0x121 JUMPI PUSH1 0x0 CALLDATALOAD PUSH1 0xE0 SHR DUP1 PUSH4 0x6D069A67 GT PUSH2 0xAD JUMPI DUP1 PUSH4 0x95D89B41 GT PUSH2 0x71 JUMPI DUP1 PUSH4 0x95D89B41 EQ PUSH2 0x306 JUMPI DUP1 PUSH4 0xA9059CBB EQ PUSH2 0x30E JUMPI DUP1 PUSH4 0xB9559846 EQ PUSH2 0x321 JUMPI DUP1 PUSH4 0xDD62ED3E EQ PUSH2 0x347 JUMPI DUP1 PUSH4 0xFF9C8AC6 EQ PUSH2 0x380 JUMPI PUSH1 0x0 DUP1 REVERT JUMPDEST DUP1 PUSH4 0x6D069A67 EQ PUSH2 0x24F JUMPI DUP1 PUSH4 0x70A08231 EQ PUSH2 0x262 JUMPI DUP1 PUSH4 0x7DB9E37F EQ PUSH2 0x28B JUMPI DUP1 PUSH4 0x8F3504D7 EQ PUSH2 0x2B9 JUMPI DUP1 PUSH4 0x929F8C75 EQ PUSH2 0x2F3 JUMPI PUSH1 0x0 DUP1 REVERT JUMPDEST DUP1 PUSH4 0x18160DDD GT PUSH2 0xF4 JUMPI DUP1 PUSH4 0x18160DDD EQ PUSH2 0x1F5 JUMPI DUP1 PUSH4 0x23B872DD EQ PUSH2 0x207 JUMPI DUP1 PUSH4 0x313CE567 EQ PUSH2 0x21A JUMPI DUP1 PUSH4 0x4FA186BA EQ PUSH2 0x229 JUMPI DUP1 PUSH4 0x51C6590A EQ PUSH2 0x23C JUMPI PUSH1 0x0 DUP1 REVERT JUMPDEST DUP1 PUSH4 0x6FDDE03 EQ PUSH2 0x126 JUMPI DUP1 PUSH4 0x902F1AC EQ PUSH2 0x144 JUMPI DUP1 PUSH4 0x95EA7B3 EQ PUSH2 0x1BD JUMPI DUP1 PUSH4 0xA861F2A EQ PUSH2 0x1E0 JUMPI JUMPDEST PUSH1 0x0 DUP1 REVERT JUMPDEST PUSH2 0x12E PUSH2 0x393 JUMP JUMPDEST PUSH1 0x40 MLOAD PUSH2 0x13B SWAP2 SWAP1 PUSH2 0x15D1 JUMP JUMPDEST PUSH1 0x40 MLOAD DUP1 SWAP2 SUB SWAP1 RETURN JUMPDEST PUSH1 0x1 PUSH1 0x1 PUSH1 0xA0 SHL SUB PUSH32 0x0 DUP2 AND PUSH1 0x0 SWAP1 DUP2 MSTORE PUSH1 0x6 PUSH1 0x20 MSTORE PUSH1 0x40 DUP1 DUP3 KECCAK256 SLOAD PUSH32 0x0 SWAP1 SWAP4 AND DUP3 MSTORE SWAP1 KECCAK256 SLOAD PUSH1 0x40 DUP1 MLOAD SWAP3 DUP4 MSTORE PUSH1 0x20 DUP4 ADD SWAP2 SWAP1 SWAP2 MSTORE ADD PUSH2 0x13B JUMP JUMPDEST PUSH2 0x1D0 PUSH2 0x1CB CALLDATASIZE PUSH1 0x4 PUSH2 0x163B JUMP JUMPDEST PUSH2 0x425 JUMP JUMPDEST PUSH1 0x40 MLOAD SWAP1 ISZERO ISZERO DUP2 MSTORE PUSH1 0x20 ADD PUSH2 0x13B JUMP JUMPDEST PUSH2 0x1F3 PUSH2 0x1EE CALLDATASIZE PUSH1 0x4 PUSH2 0x1665 JUMP JUMPDEST PUSH2 0x43F JUMP JUMPDEST STOP JUMPDEST PUSH1 0x2 SLOAD JUMPDEST PUSH1 0x40 MLOAD SWAP1 DUP2 MSTORE PUSH1 0x20 ADD PUSH2 0x13B JUMP JUMPDEST PUSH2 0x1D0 PUSH2 0x215 CALLDATASIZE PUSH1 0x4 PUSH2 0x167E JUMP JUMPDEST PUSH2 0x890 JUMP JUMPDEST PUSH1 0x40 MLOAD PUSH1 0x12 DUP2 MSTORE PUSH1 0x20 ADD PUSH2 0x13B JUMP JUMPDEST PUSH2 0x1F9 PUSH2 0x237 CALLDATASIZE PUSH1 0x4 PUSH2 0x16BA JUMP JUMPDEST PUSH2 0x8B4 JUMP JUMPDEST PUSH2 0x1F3 PUSH2 0x24A CALLDATASIZE PUSH1 0x4 PUSH2 0x1665 JUMP JUMPDEST PUSH2 0x904 JUMP JUMPDEST PUSH2 0x1F3 PUSH2 0x25D CALLDATASIZE PUSH1 0x4 PUSH2 0x16BA JUMP JUMPDEST PUSH2 0xCBB JUMP JUMPDEST PUSH2 0x1F9 PUSH2 0x270 CALLDATASIZE PUSH1 0x4 PUSH2 0x16F6 JUMP JUMPDEST PUSH1 0x1 PUSH1 0x1 PUSH1 0xA0 SHL SUB AND PUSH1 0x0 SWAP1 DUP2 MSTORE PUSH1 0x20 DUP2 SWAP1 MSTORE PUSH1 0x40 SWAP1 KECCAK256 SLOAD SWAP1 JUMP JUMPDEST PUSH2 0x29E PUSH2 0x299 CALLDATASIZE PUSH1 0x4 PUSH2 0x16BA JUMP JUMPDEST PUSH2 0x10E6 JUMP JUMPDEST PUSH1 0x40 DUP1 MLOAD SWAP4 DUP5 MSTORE PUSH1 0x20 DUP5 ADD SWAP3 SWAP1 SWAP3 MSTORE SWAP1 DUP3 ADD MSTORE PUSH1 0x60 ADD PUSH2 0x13B JUMP JUMPDEST PUSH32 0x0 JUMPDEST PUSH1 0x40 MLOAD PUSH1 0x1 PUSH1 0x1 PUSH1 0xA0 SHL SUB SWAP1 SWAP2 AND DUP2 MSTORE PUSH1 0x20 ADD PUSH2 0x13B JUMP JUMPDEST PUSH2 0x1F9 PUSH2 0x301 CALLDATASIZE PUSH1 0x4 PUSH2 0x1665 JUMP JUMPDEST PUSH2 0x111A JUMP JUMPDEST PUSH2 0x12E PUSH2 0x11B9 JUMP JUMPDEST PUSH2 0x1D0 PUSH2 0x31C CALLDATASIZE PUSH1 0x4 PUSH2 0x163B JUMP JUMPDEST PUSH2 0x11C8 JUMP JUMPDEST PUSH32 0x0 PUSH2 0x2DB JUMP JUMPDEST PUSH2 0x1F9 PUSH2 0x355 CALLDATASIZE PUSH1 0x4 PUSH2 0x1718 JUMP JUMPDEST PUSH1 0x1 PUSH1 0x1 PUSH1 0xA0 SHL SUB SWAP2 DUP3 AND PUSH1 0x0 SWAP1 DUP2 MSTORE PUSH1 0x1 PUSH1 0x20 SWAP1 DUP2 MSTORE PUSH1 0x40 DUP1 DUP4 KECCAK256 SWAP4 SWAP1 SWAP5 AND DUP3 MSTORE SWAP2 SWAP1 SWAP2 MSTORE KECCAK256 SLOAD SWAP1 JUMP JUMPDEST PUSH2 0x1F9 PUSH2 0x38E CALLDATASIZE PUSH1 0x4 PUSH2 0x16BA JUMP JUMPDEST PUSH2 0x11D6 JUMP JUMPDEST PUSH1 0x60 PUSH1 0x3 DUP1 SLOAD PUSH2 0x3A2 SWAP1 PUSH2 0x174B JUMP JUMPDEST DUP1 PUSH1 0x1F ADD PUSH1 0x20 DUP1 SWAP2 DIV MUL PUSH1 0x20 ADD PUSH1 0x40 MLOAD SWAP1 DUP2 ADD PUSH1 0x40 MSTORE DUP1 SWAP3 SWAP2 SWAP1 DUP2 DUP2 MSTORE PUSH1 0x20 ADD DUP3 DUP1 SLOAD PUSH2 0x3CE SWAP1 PUSH2 0x174B JUMP JUMPDEST DUP1 ISZERO PUSH2 0x41B JUMPI DUP1 PUSH1 0x1F LT PUSH2 0x3F0 JUMPI PUSH2 0x100 DUP1 DUP4 SLOAD DIV MUL DUP4 MSTORE SWAP2 PUSH1 0x20 ADD SWAP2 PUSH2 0x41B JUMP JUMPDEST DUP3 ADD SWAP2 SWAP1 PUSH1 0x0 MSTORE PUSH1 0x20 PUSH1 0x0 KECCAK256 SWAP1 JUMPDEST DUP2 SLOAD DUP2 MSTORE SWAP1 PUSH1 0x1 ADD SWAP1 PUSH1 0x20 ADD DUP1 DUP4 GT PUSH2 0x3FE JUMPI DUP3 SWAP1 SUB PUSH1 0x1F AND DUP3 ADD SWAP2 JUMPDEST POP POP POP POP POP SWAP1 POP SWAP1 JUMP JUMPDEST PUSH1 0x0 CALLER PUSH2 0x433 DUP2 DUP6 DUP6 PUSH2 0x124D JUMP JUMPDEST PUSH1 0x1 SWAP2 POP POP JUMPDEST SWAP3 SWAP2 POP POP JUMP JUMPDEST PUSH2 0x447 PUSH2 0x125A JUMP JUMPDEST PUSH1 0x0 DUP2 GT PUSH2 0x49C JUMPI PUSH1 0x40 MLOAD PUSH3 0x461BCD PUSH1 0xE5 SHL DUP2 MSTORE PUSH1 0x20 PUSH1 0x4 DUP3 ADD MSTORE PUSH1 0x1D PUSH1 0x24 DUP3 ADD MSTORE PUSH32 0x416D6F756E74206D7573742062652067726561746572207468616E2030000000 PUSH1 0x44 DUP3 ADD MSTORE PUSH1 0x64 ADD JUMPDEST PUSH1 0x40 MLOAD DUP1 SWAP2 SUB SWAP1 REVERT JUMPDEST CALLER PUSH1 0x0 SWAP1 DUP2 MSTORE PUSH1 0x20 DUP2 SWAP1 MSTORE PUSH1 0x40 SWAP1 KECCAK256 SLOAD DUP2 GT ISZERO PUSH2 0x4F4 JUMPI PUSH1 0x40 MLOAD PUSH3 0x461BCD PUSH1 0xE5 SHL DUP2 MSTORE PUSH1 0x20 PUSH1 0x4 DUP3 ADD MSTORE PUSH1 0x16 PUSH1 0x24 DUP3 ADD MSTORE PUSH22 0x496E73756666696369656E74204C5020746F6B656E73 PUSH1 0x50 SHL PUSH1 0x44 DUP3 ADD MSTORE PUSH1 0x64 ADD PUSH2 0x493 JUMP JUMPDEST PUSH1 0x0 PUSH2 0x4FF PUSH1 0x2 SLOAD SWAP1 JUMP JUMPDEST PUSH1 0x1 PUSH1 0x1 PUSH1 0xA0 SHL SUB PUSH32 0x0 AND PUSH1 0x0 SWAP1 DUP2 MSTORE PUSH1 0x6 PUSH1 0x20 MSTORE PUSH1 0x40 DUP2 KECCAK256 SLOAD SWAP2 SWAP3 POP SWAP1 DUP3 SWAP1 PUSH2 0x548 SWAP1 DUP6 PUSH2 0x179B JUMP JUMPDEST PUSH2 0x552 SWAP2 SWAP1 PUSH2 0x17B2 JUMP JUMPDEST PUSH1 0x1 PUSH1 0x1 PUSH1 0xA0 SHL SUB PUSH32 0x0 AND PUSH1 0x0 SWAP1 DUP2 MSTORE PUSH1 0x6 PUSH1 0x20 MSTORE PUSH1 0x40 DUP2 KECCAK256 SLOAD SWAP2 SWAP3 POP SWAP1 DUP4 SWAP1 PUSH2 0x59B SWAP1 DUP7 PUSH2 0x179B JUMP JUMPDEST PUSH2 0x5A5 SWAP2 SWAP1 PUSH2 0x17B2 JUMP JUMPDEST SWAP1 POP PUSH2 0x5B1 CALLER DUP6 PUSH2 0x1284 JUMP JUMPDEST PUSH1 0x1 PUSH1 0x1 PUSH1 0xA0 SHL SUB PUSH32 0x0 AND PUSH1 0x0 SWAP1 DUP2 MSTORE PUSH1 0x6 PUSH1 0x20 MSTORE PUSH1 0x40 DUP2 KECCAK256 DUP1 SLOAD DUP5 SWAP3 SWAP1 PUSH2 0x5F9 SWAP1 DUP5 SWAP1 PUSH2 0x17D4 JUMP JUMPDEST SWAP1 SWAP2 SSTORE POP POP PUSH1 0x1 PUSH1 0x1 PUSH1 0xA0 SHL SUB PUSH32 0x0 AND PUSH1 0x0 SWAP1 DUP2 MSTORE PUSH1 0x6 PUSH1 0x20 MSTORE PUSH1 0x40 DUP2 KECCAK256 DUP1 SLOAD DUP4 SWAP3 SWAP1 PUSH2 0x646 SWAP1 DUP5 SWAP1 PUSH2 0x17D4 JUMP JUMPDEST SWAP1 SWAP2 SSTORE POP POP PUSH1 0x40 MLOAD PUSH4 0xA9059CBB PUSH1 0xE0 SHL DUP2 MSTORE CALLER PUSH1 0x4 DUP3 ADD MSTORE PUSH1 0x24 DUP2 ADD DUP4 SWAP1 MSTORE PUSH32 0x0 PUSH1 0x1 PUSH1 0x1 PUSH1 0xA0 SHL SUB AND SWAP1 PUSH4 0xA9059CBB SWAP1 PUSH1 0x44 ADD PUSH1 0x20 PUSH1 0x40 MLOAD DUP1 DUP4 SUB DUP2 PUSH1 0x0 DUP8 GAS CALL ISZERO DUP1 ISZERO PUSH2 0x6B8 JUMPI RETURNDATASIZE PUSH1 0x0 DUP1 RETURNDATACOPY RETURNDATASIZE PUSH1 0x0 REVERT JUMPDEST POP POP POP POP PUSH1 0x40 MLOAD RETURNDATASIZE PUSH1 0x1F NOT PUSH1 0x1F DUP3 ADD AND DUP3 ADD DUP1 PUSH1 0x40 MSTORE POP DUP2 ADD SWAP1 PUSH2 0x6DC SWAP2 SWAP1 PUSH2 0x17E7 JUMP JUMPDEST PUSH2 0x721 JUMPI PUSH1 0x40 MLOAD PUSH3 0x461BCD PUSH1 0xE5 SHL DUP2 MSTORE PUSH1 0x20 PUSH1 0x4 DUP3 ADD MSTORE PUSH1 0x16 PUSH1 0x24 DUP3 ADD MSTORE PUSH22 0x151C985B9CD9995C881D1BDAD95B8C0819985A5B1959 PUSH1 0x52 SHL PUSH1 0x44 DUP3 ADD MSTORE PUSH1 0x64 ADD PUSH2 0x493 JUMP JUMPDEST PUSH1 0x40 MLOAD PUSH4 0xA9059CBB PUSH1 0xE0 SHL DUP2 MSTORE CALLER PUSH1 0x4 DUP3 ADD MSTORE PUSH1 0x24 DUP2 ADD DUP3 SWAP1 MSTORE PUSH32 0x0 PUSH1 0x1 PUSH1 0x1 PUSH1 0xA0 SHL SUB AND SWAP1 PUSH4 0xA9059CBB SWAP1 PUSH1 0x44 ADD PUSH1 0x20 PUSH1 0x40 MLOAD DUP1 DUP4 SUB DUP2 PUSH1 0x0 DUP8 GAS CALL ISZERO DUP1 ISZERO PUSH2 0x78E JUMPI RETURNDATASIZE PUSH1 0x0 DUP1 RETURNDATACOPY RETURNDATASIZE PUSH1 0x0 REVERT JUMPDEST POP POP POP POP PUSH1 0x40 MLOAD RETURNDATASIZE PUSH1 0x1F NOT PUSH1 0x1F DUP3 ADD AND DUP3 ADD DUP1 PUSH1 0x40 MSTORE POP DUP2 ADD SWAP1 PUSH2 0x7B2 SWAP2 SWAP1 PUSH2 0x17E7 JUMP JUMPDEST PUSH2 0x7F7 JUMPI PUSH1 0x40 MLOAD PUSH3 0x461BCD PUSH1 0xE5 SHL DUP2 MSTORE PUSH1 0x20 PUSH1 0x4 DUP3 ADD MSTORE PUSH1 0x16 PUSH1 0x24 DUP3 ADD MSTORE PUSH22 0x151C985B9CD9995C881D1BDAD95B8C4819985A5B1959 PUSH1 0x52 SHL PUSH1 0x44 DUP3 ADD MSTORE PUSH1 0x64 ADD PUSH2 0x493 JUMP JUMPDEST PUSH1 0x40 DUP1 MLOAD PUSH1 0x1 PUSH1 0x1 PUSH1 0xA0 SHL SUB PUSH32 0x0 DUP2 AND DUP3 MSTORE PUSH32 0x0 AND PUSH1 0x20 DUP3 ADD MSTORE DUP3 SWAP2 DUP5 SWAP2 DUP8 SWAP2 PUSH32 0x62121AD459ACFB016CC0335A219566240380160DF893109729D63AB4CE259618 SWAP2 ADD PUSH1 0x40 MLOAD DUP1 SWAP2 SUB SWAP1 LOG4 POP POP POP PUSH2 0x88D PUSH1 0x1 PUSH1 0x5 SSTORE JUMP JUMPDEST POP JUMP JUMPDEST PUSH1 0x0 CALLER PUSH2 0x89E DUP6 DUP3 DUP6 PUSH2 0x12BE JUMP JUMPDEST PUSH2 0x8A9 DUP6 DUP6 DUP6 PUSH2 0x133D JUMP JUMPDEST POP PUSH1 0x1 SWAP5 SWAP4 POP POP POP POP JUMP JUMPDEST PUSH1 0x1 PUSH1 0x1 PUSH1 0xA0 SHL SUB DUP1 DUP3 AND PUSH1 0x0 SWAP1 DUP2 MSTORE PUSH1 0x6 PUSH1 0x20 MSTORE PUSH1 0x40 DUP1 DUP3 KECCAK256 SLOAD SWAP3 DUP7 AND DUP3 MSTORE DUP2 KECCAK256 SLOAD SWAP1 SWAP2 SWAP1 DUP3 PUSH2 0x8E5 DUP7 DUP4 PUSH2 0x1809 JUMP JUMPDEST PUSH2 0x8EF DUP8 DUP6 PUSH2 0x179B JUMP JUMPDEST PUSH2 0x8F9 SWAP2 SWAP1 PUSH2 0x17B2 JUMP JUMPDEST SWAP8 SWAP7 POP POP POP POP POP POP POP JUMP JUMPDEST PUSH2 0x90C PUSH2 0x125A JUMP JUMPDEST PUSH1 0x0 DUP2 GT PUSH2 0x95C JUMPI PUSH1 0x40 MLOAD PUSH3 0x461BCD PUSH1 0xE5 SHL DUP2 MSTORE PUSH1 0x20 PUSH1 0x4 DUP3 ADD MSTORE PUSH1 0x1D PUSH1 0x24 DUP3 ADD MSTORE PUSH32 0x416D6F756E74206D7573742062652067726561746572207468616E2030000000 PUSH1 0x44 DUP3 ADD MSTORE PUSH1 0x64 ADD PUSH2 0x493 JUMP JUMPDEST PUSH1 0x0 PUSH2 0x967 DUP3 PUSH2 0x111A JUMP JUMPDEST SWAP1 POP PUSH1 0x0 DUP1 PUSH2 0x975 PUSH1 0x2 SLOAD SWAP1 JUMP JUMPDEST GT ISZERO PUSH2 0x9D2 JUMPI PUSH32 0x0 PUSH1 0x1 PUSH1 0x1 PUSH1 0xA0 SHL SUB AND PUSH1 0x0 SWAP1 DUP2 MSTORE PUSH1 0x6 PUSH1 0x20 MSTORE PUSH1 0x40 SWAP1 KECCAK256 SLOAD PUSH1 0x2 SLOAD PUSH2 0x9C1 SWAP1 DUP6 PUSH2 0x179B JUMP JUMPDEST PUSH2 0x9CB SWAP2 SWAP1 PUSH2 0x17B2 JUMP JUMPDEST SWAP1 POP PUSH2 0x9D5 JUMP JUMPDEST POP DUP2 JUMPDEST PUSH2 0x9DF CALLER DUP3 PUSH2 0x139C JUMP JUMPDEST PUSH1 0x40 MLOAD PUSH4 0x23B872DD PUSH1 0xE0 SHL DUP2 MSTORE PUSH1 0x1 PUSH1 0x1 PUSH1 0xA0 SHL SUB PUSH32 0x0 AND SWAP1 PUSH4 0x23B872DD SWAP1 PUSH2 0xA2F SWAP1 CALLER SWAP1 ADDRESS SWAP1 DUP9 SWAP1 PUSH1 0x4 ADD PUSH2 0x181C JUMP JUMPDEST PUSH1 0x20 PUSH1 0x40 MLOAD DUP1 DUP4 SUB DUP2 PUSH1 0x0 DUP8 GAS CALL ISZERO DUP1 ISZERO PUSH2 0xA4E JUMPI RETURNDATASIZE PUSH1 0x0 DUP1 RETURNDATACOPY RETURNDATASIZE PUSH1 0x0 REVERT JUMPDEST POP POP POP POP PUSH1 0x40 MLOAD RETURNDATASIZE PUSH1 0x1F NOT PUSH1 0x1F DUP3 ADD AND DUP3 ADD DUP1 PUSH1 0x40 MSTORE POP DUP2 ADD SWAP1 PUSH2 0xA72 SWAP2 SWAP1 PUSH2 0x17E7 JUMP JUMPDEST PUSH2 0xAB6 JUMPI PUSH1 0x40 MLOAD PUSH3 0x461BCD PUSH1 0xE5 SHL DUP2 MSTORE PUSH1 0x20 PUSH1 0x4 DUP3 ADD MSTORE PUSH1 0x15 PUSH1 0x24 DUP3 ADD MSTORE PUSH21 0x151C985B9CD9995C88105B1C1A184819985A5B1959 PUSH1 0x5A SHL PUSH1 0x44 DUP3 ADD MSTORE PUSH1 0x64 ADD PUSH2 0x493 JUMP JUMPDEST PUSH1 0x1 PUSH1 0x1 PUSH1 0xA0 SHL SUB PUSH32 0x0 AND PUSH1 0x0 SWAP1 DUP2 MSTORE PUSH1 0x6 PUSH1 0x20 MSTORE PUSH1 0x40 DUP2 KECCAK256 DUP1 SLOAD DUP6 SWAP3 SWAP1 PUSH2 0xAFE SWAP1 DUP5 SWAP1 PUSH2 0x1809 JUMP JUMPDEST SWAP1 SWAP2 SSTORE POP POP PUSH1 0x40 MLOAD PUSH4 0x23B872DD PUSH1 0xE0 SHL DUP2 MSTORE PUSH1 0x1 PUSH1 0x1 PUSH1 0xA0 SHL SUB PUSH32 0x0 AND SWAP1 PUSH4 0x23B872DD SWAP1 PUSH2 0xB53 SWAP1 CALLER SWAP1 ADDRESS SWAP1 DUP8 SWAP1 PUSH1 0x4 ADD PUSH2 0x181C JUMP JUMPDEST PUSH1 0x20 PUSH1 0x40 MLOAD DUP1 DUP4 SUB DUP2 PUSH1 0x0 DUP8 GAS CALL ISZERO DUP1 ISZERO PUSH2 0xB72 JUMPI RETURNDATASIZE PUSH1 0x0 DUP1 RETURNDATACOPY RETURNDATASIZE PUSH1 0x0 REVERT JUMPDEST POP POP POP POP PUSH1 0x40 MLOAD RETURNDATASIZE PUSH1 0x1F NOT PUSH1 0x1F DUP3 ADD AND DUP3 ADD DUP1 PUSH1 0x40 MSTORE POP DUP2 ADD SWAP1 PUSH2 0xB96 SWAP2 SWAP1 PUSH2 0x17E7 JUMP JUMPDEST PUSH2 0xBD9 JUMPI PUSH1 0x40 MLOAD PUSH3 0x461BCD PUSH1 0xE5 SHL DUP2 MSTORE PUSH1 0x20 PUSH1 0x4 DUP3 ADD MSTORE PUSH1 0x14 PUSH1 0x24 DUP3 ADD MSTORE PUSH20 0x151C985B9CD9995C8810995D184819985A5B1959 PUSH1 0x62 SHL PUSH1 0x44 DUP3 ADD MSTORE PUSH1 0x64 ADD PUSH2 0x493 JUMP JUMPDEST PUSH1 0x1 PUSH1 0x1 PUSH1 0xA0 SHL SUB PUSH32 0x0 AND PUSH1 0x0 SWAP1 DUP2 MSTORE PUSH1 0x6 PUSH1 0x20 MSTORE PUSH1 0x40 DUP2 KECCAK256 DUP1 SLOAD DUP5 SWAP3 SWAP1 PUSH2 0xC21 SWAP1 DUP5 SWAP1 PUSH2 0x1809 JUMP JUMPDEST SWAP1 SWAP2 SSTORE POP POP PUSH1 0x40 DUP1 MLOAD PUSH1 0x1 PUSH1 0x1 PUSH1 0xA0 SHL SUB PUSH32 0x0 DUP2 AND DUP3 MSTORE PUSH32 0x0 AND PUSH1 0x20 DUP3 ADD MSTORE DUP4 SWAP2 DUP6 SWAP2 DUP5 SWAP2 PUSH32 0x86C3929A230B573AA47CD83759AED11B800D147ABC23E246DFEB5EBBD7A110E3 SWAP2 ADD PUSH1 0x40 MLOAD DUP1 SWAP2 SUB SWAP1 LOG4 POP POP PUSH2 0x88D PUSH1 0x1 PUSH1 0x5 SSTORE JUMP JUMPDEST PUSH2 0xCC3 PUSH2 0x125A JUMP JUMPDEST DUP1 PUSH1 0x1 PUSH1 0x1 PUSH1 0xA0 SHL SUB AND DUP4 PUSH1 0x1 PUSH1 0x1 PUSH1 0xA0 SHL SUB AND SUB PUSH2 0xD11 JUMPI PUSH1 0x40 MLOAD PUSH3 0x461BCD PUSH1 0xE5 SHL DUP2 MSTORE PUSH1 0x20 PUSH1 0x4 DUP3 ADD MSTORE PUSH1 0xA PUSH1 0x24 DUP3 ADD MSTORE PUSH10 0x29B0B6B2903A37B5B2B7 PUSH1 0xB1 SHL PUSH1 0x44 DUP3 ADD MSTORE PUSH1 0x64 ADD PUSH2 0x493 JUMP JUMPDEST PUSH32 0x0 PUSH1 0x1 PUSH1 0x1 PUSH1 0xA0 SHL SUB AND DUP4 PUSH1 0x1 PUSH1 0x1 PUSH1 0xA0 SHL SUB AND EQ DUP1 PUSH2 0xD82 JUMPI POP PUSH32 0x0 PUSH1 0x1 PUSH1 0x1 PUSH1 0xA0 SHL SUB AND DUP4 PUSH1 0x1 PUSH1 0x1 PUSH1 0xA0 SHL SUB AND EQ JUMPDEST PUSH2 0xDBE JUMPI PUSH1 0x40 MLOAD PUSH3 0x461BCD PUSH1 0xE5 SHL DUP2 MSTORE PUSH1 0x20 PUSH1 0x4 DUP3 ADD MSTORE PUSH1 0xD PUSH1 0x24 DUP3 ADD MSTORE PUSH13 0x24B73B30B634B2103A37B5B2B7 PUSH1 0x99 SHL PUSH1 0x44 DUP3 ADD MSTORE PUSH1 0x64 ADD PUSH2 0x493 JUMP JUMPDEST PUSH32 0x0 PUSH1 0x1 PUSH1 0x1 PUSH1 0xA0 SHL SUB AND DUP2 PUSH1 0x1 PUSH1 0x1 PUSH1 0xA0 SHL SUB AND EQ DUP1 PUSH2 0xE2F JUMPI POP PUSH32 0x0 PUSH1 0x1 PUSH1 0x1 PUSH1 0xA0 SHL SUB AND DUP2 PUSH1 0x1 PUSH1 0x1 PUSH1 0xA0 SHL SUB AND EQ JUMPDEST PUSH2 0xE6B JUMPI PUSH1 0x40 MLOAD PUSH3 0x461BCD PUSH1 0xE5 SHL DUP2 MSTORE PUSH1 0x20 PUSH1 0x4 DUP3 ADD MSTORE PUSH1 0xD PUSH1 0x24 DUP3 ADD MSTORE PUSH13 0x24B73B30B634B2103A37B5B2B7 PUSH1 0x99 SHL PUSH1 0x44 DUP3 ADD MSTORE PUSH1 0x64 ADD PUSH2 0x493 JUMP JUMPDEST PUSH1 0x0 DUP3 GT PUSH2 0xEA9 JUMPI PUSH1 0x40 MLOAD PUSH3 0x461BCD PUSH1 0xE5 SHL DUP2 MSTORE PUSH1 0x20 PUSH1 0x4 DUP3 ADD MSTORE PUSH1 0xB PUSH1 0x24 DUP3 ADD MSTORE PUSH11 0x16995C9BC8185B5BDD5B9D PUSH1 0xAA SHL PUSH1 0x44 DUP3 ADD MSTORE PUSH1 0x64 ADD PUSH2 0x493 JUMP JUMPDEST PUSH1 0x0 PUSH2 0x3E8 PUSH2 0xEB9 PUSH1 0x3 DUP6 PUSH2 0x179B JUMP JUMPDEST PUSH2 0xEC3 SWAP2 SWAP1 PUSH2 0x17B2 JUMP JUMPDEST SWAP1 POP PUSH1 0x0 PUSH2 0xED1 DUP3 DUP6 PUSH2 0x17D4 JUMP JUMPDEST SWAP1 POP PUSH1 0x0 PUSH2 0xEE0 DUP7 DUP4 DUP7 PUSH2 0x11D6 JUMP JUMPDEST PUSH1 0x40 MLOAD PUSH4 0x23B872DD PUSH1 0xE0 SHL DUP2 MSTORE SWAP1 SWAP2 POP PUSH1 0x1 PUSH1 0x1 PUSH1 0xA0 SHL SUB DUP8 AND SWAP1 PUSH4 0x23B872DD SWAP1 PUSH2 0xF13 SWAP1 CALLER SWAP1 ADDRESS SWAP1 DUP11 SWAP1 PUSH1 0x4 ADD PUSH2 0x181C JUMP JUMPDEST PUSH1 0x20 PUSH1 0x40 MLOAD DUP1 DUP4 SUB DUP2 PUSH1 0x0 DUP8 GAS CALL ISZERO DUP1 ISZERO PUSH2 0xF32 JUMPI RETURNDATASIZE PUSH1 0x0 DUP1 RETURNDATACOPY RETURNDATASIZE PUSH1 0x0 REVERT JUMPDEST POP POP POP POP PUSH1 0x40 MLOAD RETURNDATASIZE PUSH1 0x1F NOT PUSH1 0x1F DUP3 ADD AND DUP3 ADD DUP1 PUSH1 0x40 MSTORE POP DUP2 ADD SWAP1 PUSH2 0xF56 SWAP2 SWAP1 PUSH2 0x17E7 JUMP JUMPDEST PUSH2 0xF90 JUMPI PUSH1 0x40 MLOAD PUSH3 0x461BCD PUSH1 0xE5 SHL DUP2 MSTORE PUSH1 0x20 PUSH1 0x4 DUP3 ADD MSTORE PUSH1 0xB PUSH1 0x24 DUP3 ADD MSTORE PUSH11 0x14DDD85C0811985A5B1959 PUSH1 0xAA SHL PUSH1 0x44 DUP3 ADD MSTORE PUSH1 0x64 ADD PUSH2 0x493 JUMP JUMPDEST PUSH1 0x40 MLOAD PUSH4 0xA9059CBB PUSH1 0xE0 SHL DUP2 MSTORE CALLER PUSH1 0x4 DUP3 ADD MSTORE PUSH1 0x24 DUP2 ADD DUP3 SWAP1 MSTORE PUSH1 0x1 PUSH1 0x1 PUSH1 0xA0 SHL SUB DUP6 AND SWAP1 PUSH4 0xA9059CBB SWAP1 PUSH1 0x44 ADD PUSH1 0x20 PUSH1 0x40 MLOAD DUP1 DUP4 SUB DUP2 PUSH1 0x0 DUP8 GAS CALL ISZERO DUP1 ISZERO PUSH2 0xFDD JUMPI RETURNDATASIZE PUSH1 0x0 DUP1 RETURNDATACOPY RETURNDATASIZE PUSH1 0x0 REVERT JUMPDEST POP POP POP POP PUSH1 0x40 MLOAD RETURNDATASIZE PUSH1 0x1F NOT PUSH1 0x1F DUP3 ADD AND DUP3 ADD DUP1 PUSH1 0x40 MSTORE POP DUP2 ADD SWAP1 PUSH2 0x1001 SWAP2 SWAP1 PUSH2 0x17E7 JUMP JUMPDEST PUSH2 0x103B JUMPI PUSH1 0x40 MLOAD PUSH3 0x461BCD PUSH1 0xE5 SHL DUP2 MSTORE PUSH1 0x20 PUSH1 0x4 DUP3 ADD MSTORE PUSH1 0xB PUSH1 0x24 DUP3 ADD MSTORE PUSH11 0x14DDD85C0811985A5B1959 PUSH1 0xAA SHL PUSH1 0x44 DUP3 ADD MSTORE PUSH1 0x64 ADD PUSH2 0x493 JUMP JUMPDEST PUSH1 0x1 PUSH1 0x1 PUSH1 0xA0 SHL SUB DUP7 AND PUSH1 0x0 SWAP1 DUP2 MSTORE PUSH1 0x6 PUSH1 0x20 MSTORE PUSH1 0x40 DUP2 KECCAK256 DUP1 SLOAD DUP8 SWAP3 SWAP1 PUSH2 0x1063 SWAP1 DUP5 SWAP1 PUSH2 0x1809 JUMP JUMPDEST SWAP1 SWAP2 SSTORE POP POP PUSH1 0x1 PUSH1 0x1 PUSH1 0xA0 SHL SUB DUP5 AND PUSH1 0x0 SWAP1 DUP2 MSTORE PUSH1 0x6 PUSH1 0x20 MSTORE PUSH1 0x40 DUP2 KECCAK256 DUP1 SLOAD DUP4 SWAP3 SWAP1 PUSH2 0x1090 SWAP1 DUP5 SWAP1 PUSH2 0x17D4 JUMP JUMPDEST SWAP3 POP POP DUP2 SWAP1 SSTORE POP DUP1 DUP6 PUSH32 0xD83A63A0EBF8FB6A344F0E3DC86DFC975E6009F82E455ACC6622CC3FD7C5928D DUP9 DUP8 DUP8 PUSH1 0x40 MLOAD PUSH2 0x10CC SWAP4 SWAP3 SWAP2 SWAP1 PUSH2 0x181C JUMP JUMPDEST PUSH1 0x40 MLOAD DUP1 SWAP2 SUB SWAP1 LOG3 POP POP POP PUSH2 0x10E1 PUSH1 0x1 PUSH1 0x5 SSTORE JUMP JUMPDEST POP POP POP JUMP JUMPDEST PUSH1 0x0 DUP1 PUSH1 0x0 PUSH2 0x10F6 DUP7 DUP7 DUP7 PUSH2 0x11D6 JUMP JUMPDEST SWAP3 POP PUSH2 0x1103 DUP7 DUP7 DUP7 PUSH2 0x8B4 JUMP JUMPDEST SWAP2 POP PUSH2 0x110F DUP4 DUP4 PUSH2 0x17D4 JUMP JUMPDEST SWAP1 POP SWAP4 POP SWAP4 POP SWAP4 SWAP1 POP JUMP JUMPDEST PUSH1 0x1 PUSH1 0x1 PUSH1 0xA0 SHL SUB PUSH32 0x0 DUP2 AND PUSH1 0x0 SWAP1 DUP2 MSTORE PUSH1 0x6 PUSH1 0x20 MSTORE PUSH1 0x40 DUP1 DUP3 KECCAK256 SLOAD PUSH32 0x0 SWAP1 SWAP4 AND DUP3 MSTORE DUP2 KECCAK256 SLOAD SWAP1 SWAP2 SWAP1 DUP2 ISZERO DUP1 PUSH2 0x118C JUMPI POP DUP1 ISZERO JUMPDEST ISZERO PUSH2 0x11A4 JUMPI PUSH2 0x119C PUSH1 0x2 DUP6 PUSH2 0x179B JUMP JUMPDEST SWAP5 SWAP4 POP POP POP POP JUMP JUMPDEST DUP2 PUSH2 0x11AF DUP3 DUP7 PUSH2 0x179B JUMP JUMPDEST PUSH2 0x119C SWAP2 SWAP1 PUSH2 0x17B2 JUMP JUMPDEST PUSH1 0x60 PUSH1 0x4 DUP1 SLOAD PUSH2 0x3A2 SWAP1 PUSH2 0x174B JUMP JUMPDEST PUSH1 0x0 CALLER PUSH2 0x433 DUP2 DUP6 DUP6 PUSH2 0x133D JUMP JUMPDEST PUSH1 0x1 PUSH1 0x1 PUSH1 0xA0 SHL SUB DUP1 DUP3 AND PUSH1 0x0 SWAP1 DUP2 MSTORE PUSH1 0x6 PUSH1 0x20 MSTORE PUSH1 0x40 DUP1 DUP3 KECCAK256 SLOAD SWAP3 DUP7 AND DUP3 MSTORE DUP2 KECCAK256 SLOAD SWAP1 SWAP2 SWAP1 DUP3 PUSH2 0x3E8 PUSH2 0x120B PUSH1 0x3 DUP3 PUSH2 0x17D4 JUMP JUMPDEST PUSH2 0x1215 SWAP1 DUP9 PUSH2 0x179B JUMP JUMPDEST PUSH2 0x121F SWAP2 SWAP1 PUSH2 0x17B2 JUMP JUMPDEST SWAP1 POP PUSH1 0x0 PUSH2 0x122D DUP3 DUP5 PUSH2 0x1809 JUMP JUMPDEST PUSH2 0x1237 DUP4 DUP7 PUSH2 0x179B JUMP JUMPDEST PUSH2 0x1241 SWAP2 SWAP1 PUSH2 0x17B2 JUMP JUMPDEST SWAP9 SWAP8 POP POP POP POP POP POP POP POP JUMP JUMPDEST PUSH2 0x10E1 DUP4 DUP4 DUP4 PUSH1 0x1 PUSH2 0x13D2 JUMP JUMPDEST PUSH1 0x2 PUSH1 0x5 SLOAD SUB PUSH2 0x127D JUMPI PUSH1 0x40 MLOAD PUSH4 0x3EE5AEB5 PUSH1 0xE0 SHL DUP2 MSTORE PUSH1 0x4 ADD PUSH1 0x40 MLOAD DUP1 SWAP2 SUB SWAP1 REVERT JUMPDEST PUSH1 0x2 PUSH1 0x5 SSTORE JUMP JUMPDEST PUSH1 0x1 PUSH1 0x1 PUSH1 0xA0 SHL SUB DUP3 AND PUSH2 0x12AE JUMPI PUSH1 0x40 MLOAD PUSH4 0x4B637E8F PUSH1 0xE1 SHL DUP2 MSTORE PUSH1 0x0 PUSH1 0x4 DUP3 ADD MSTORE PUSH1 0x24 ADD PUSH2 0x493 JUMP JUMPDEST PUSH2 0x12BA DUP3 PUSH1 0x0 DUP4 PUSH2 0x14A7 JUMP JUMPDEST POP POP JUMP JUMPDEST PUSH1 0x1 PUSH1 0x1 PUSH1 0xA0 SHL SUB DUP4 DUP2 AND PUSH1 0x0 SWAP1 DUP2 MSTORE PUSH1 0x1 PUSH1 0x20 SWAP1 DUP2 MSTORE PUSH1 0x40 DUP1 DUP4 KECCAK256 SWAP4 DUP7 AND DUP4 MSTORE SWAP3 SWAP1 MSTORE KECCAK256 SLOAD PUSH1 0x0 NOT DUP2 LT ISZERO PUSH2 0x1337 JUMPI DUP2 DUP2 LT ISZERO PUSH2 0x1328 JUMPI PUSH1 0x40 MLOAD PUSH4 0x7DC7A0D9 PUSH1 0xE1 SHL DUP2 MSTORE PUSH1 0x1 PUSH1 0x1 PUSH1 0xA0 SHL SUB DUP5 AND PUSH1 0x4 DUP3 ADD MSTORE PUSH1 0x24 DUP2 ADD DUP3 SWAP1 MSTORE PUSH1 0x44 DUP2 ADD DUP4 SWAP1 MSTORE PUSH1 0x64 ADD PUSH2 0x493 JUMP JUMPDEST PUSH2 0x1337 DUP5 DUP5 DUP5 DUP5 SUB PUSH1 0x0 PUSH2 0x13D2 JUMP JUMPDEST POP POP POP POP JUMP JUMPDEST PUSH1 0x1 PUSH1 0x1 PUSH1 0xA0 SHL SUB DUP4 AND PUSH2 0x1367 JUMPI PUSH1 0x40 MLOAD PUSH4 0x4B637E8F PUSH1 0xE1 SHL DUP2 MSTORE PUSH1 0x0 PUSH1 0x4 DUP3 ADD MSTORE PUSH1 0x24 ADD PUSH2 0x493 JUMP JUMPDEST PUSH1 0x1 PUSH1 0x1 PUSH1 0xA0 SHL SUB DUP3 AND PUSH2 0x1391 JUMPI PUSH1 0x40 MLOAD PUSH4 0xEC442F05 PUSH1 0xE0 SHL DUP2 MSTORE PUSH1 0x0 PUSH1 0x4 DUP3 ADD MSTORE PUSH1 0x24 ADD PUSH2 0x493 JUMP JUMPDEST PUSH2 0x10E1 DUP4 DUP4 DUP4 PUSH2 0x14A7 JUMP JUMPDEST PUSH1 0x1 PUSH1 0x1 PUSH1 0xA0 SHL SUB DUP3 AND PUSH2 0x13C6 JUMPI PUSH1 0x40 MLOAD PUSH4 0xEC442F05 PUSH1 0xE0 SHL DUP2 MSTORE PUSH1 0x0 PUSH1 0x4 DUP3 ADD MSTORE PUSH1 0x24 ADD PUSH2 0x493 JUMP JUMPDEST PUSH2 0x12BA PUSH1 0x0 DUP4 DUP4 PUSH2 0x14A7 JUMP JUMPDEST PUSH1 0x1 PUSH1 0x1 PUSH1 0xA0 SHL SUB DUP5 AND PUSH2 0x13FC JUMPI PUSH1 0x40 MLOAD PUSH4 0xE602DF05 PUSH1 0xE0 SHL DUP2 MSTORE PUSH1 0x0 PUSH1 0x4 DUP3 ADD MSTORE PUSH1 0x24 ADD PUSH2 0x493 JUMP JUMPDEST PUSH1 0x1 PUSH1 0x1 PUSH1 0xA0 SHL SUB DUP4 AND PUSH2 0x1426 JUMPI PUSH1 0x40 MLOAD PUSH4 0x4A1406B1 PUSH1 0xE1 SHL DUP2 MSTORE PUSH1 0x0 PUSH1 0x4 DUP3 ADD MSTORE PUSH1 0x24 ADD PUSH2 0x493 JUMP JUMPDEST PUSH1 0x1 PUSH1 0x1 PUSH1 0xA0 SHL SUB DUP1 DUP6 AND PUSH1 0x0 SWAP1 DUP2 MSTORE PUSH1 0x1 PUSH1 0x20 SWAP1 DUP2 MSTORE PUSH1 0x40 DUP1 DUP4 KECCAK256 SWAP4 DUP8 AND DUP4 MSTORE SWAP3 SWAP1 MSTORE KECCAK256 DUP3 SWAP1 SSTORE DUP1 ISZERO PUSH2 0x1337 JUMPI DUP3 PUSH1 0x1 PUSH1 0x1 PUSH1 0xA0 SHL SUB AND DUP5 PUSH1 0x1 PUSH1 0x1 PUSH1 0xA0 SHL SUB AND PUSH32 0x8C5BE1E5EBEC7D5BD14F71427D1E84F3DD0314C0F7B2291E5B200AC8C7C3B925 DUP5 PUSH1 0x40 MLOAD PUSH2 0x1499 SWAP2 DUP2 MSTORE PUSH1 0x20 ADD SWAP1 JUMP JUMPDEST PUSH1 0x40 MLOAD DUP1 SWAP2 SUB SWAP1 LOG3 POP POP POP POP JUMP JUMPDEST PUSH1 0x1 PUSH1 0x1 PUSH1 0xA0 SHL SUB DUP4 AND PUSH2 0x14D2 JUMPI DUP1 PUSH1 0x2 PUSH1 0x0 DUP3 DUP3 SLOAD PUSH2 0x14C7 SWAP2 SWAP1 PUSH2 0x1809 JUMP JUMPDEST SWAP1 SWAP2 SSTORE POP PUSH2 0x1544 SWAP1 POP JUMP JUMPDEST PUSH1 0x1 PUSH1 0x1 PUSH1 0xA0 SHL SUB DUP4 AND PUSH1 0x0 SWAP1 DUP2 MSTORE PUSH1 0x20 DUP2 SWAP1 MSTORE PUSH1 0x40 SWAP1 KECCAK256 SLOAD DUP2 DUP2 LT ISZERO PUSH2 0x1525 JUMPI PUSH1 0x40 MLOAD PUSH4 0x391434E3 PUSH1 0xE2 SHL DUP2 MSTORE PUSH1 0x1 PUSH1 0x1 PUSH1 0xA0 SHL SUB DUP6 AND PUSH1 0x4 DUP3 ADD MSTORE PUSH1 0x24 DUP2 ADD DUP3 SWAP1 MSTORE PUSH1 0x44 DUP2 ADD DUP4 SWAP1 MSTORE PUSH1 0x64 ADD PUSH2 0x493 JUMP JUMPDEST PUSH1 0x1 PUSH1 0x1 PUSH1 0xA0 SHL SUB DUP5 AND PUSH1 0x0 SWAP1 DUP2 MSTORE PUSH1 0x20 DUP2 SWAP1 MSTORE PUSH1 0x40 SWAP1 KECCAK256 SWAP1 DUP3 SWAP1 SUB SWAP1 SSTORE JUMPDEST PUSH1 0x1 PUSH1 0x1 PUSH1 0xA0 SHL SUB DUP3 AND PUSH2 0x1560 JUMPI PUSH1 0x2 DUP1 SLOAD DUP3 SWAP1 SUB SWAP1 SSTORE PUSH2 0x157F JUMP JUMPDEST PUSH1 0x1 PUSH1 0x1 PUSH1 0xA0 SHL SUB DUP3 AND PUSH1 0x0 SWAP1 DUP2 MSTORE PUSH1 0x20 DUP2 SWAP1 MSTORE PUSH1 0x40 SWAP1 KECCAK256 DUP1 SLOAD DUP3 ADD SWAP1 SSTORE JUMPDEST DUP2 PUSH1 0x1 PUSH1 0x1 PUSH1 0xA0 SHL SUB AND DUP4 PUSH1 0x1 PUSH1 0x1 PUSH1 0xA0 SHL SUB AND PUSH32 0xDDF252AD1BE2C89B69C2B068FC378DAA952BA7F163C4A11628F55A4DF523B3EF DUP4 PUSH1 0x40 MLOAD PUSH2 0x15C4 SWAP2 DUP2 MSTORE PUSH1 0x20 ADD SWAP1 JUMP JUMPDEST PUSH1 0x40 MLOAD DUP1 SWAP2 SUB SWAP1 LOG3 POP POP POP JUMP JUMPDEST PUSH1 0x0 PUSH1 0x20 DUP1 DUP4 MSTORE DUP4 MLOAD DUP1 DUP3 DUP6 ADD MSTORE PUSH1 0x0 JUMPDEST DUP2 DUP2 LT ISZERO PUSH2 0x15FE JUMPI DUP6 DUP2 ADD DUP4 ADD MLOAD DUP6 DUP3 ADD PUSH1 0x40 ADD MSTORE DUP3 ADD PUSH2 0x15E2 JUMP JUMPDEST POP PUSH1 0x0 PUSH1 0x40 DUP3 DUP7 ADD ADD MSTORE PUSH1 0x40 PUSH1 0x1F NOT PUSH1 0x1F DUP4 ADD AND DUP6 ADD ADD SWAP3 POP POP POP SWAP3 SWAP2 POP POP JUMP JUMPDEST DUP1 CALLDATALOAD PUSH1 0x1 PUSH1 0x1 PUSH1 0xA0 SHL SUB DUP2 AND DUP2 EQ PUSH2 0x1636 JUMPI PUSH1 0x0 DUP1 REVERT JUMPDEST SWAP2 SWAP1 POP JUMP JUMPDEST PUSH1 0x0 DUP1 PUSH1 0x40 DUP4 DUP6 SUB SLT ISZERO PUSH2 0x164E JUMPI PUSH1 0x0 DUP1 REVERT JUMPDEST PUSH2 0x1657 DUP4 PUSH2 0x161F JUMP JUMPDEST SWAP5 PUSH1 0x20 SWAP4 SWAP1 SWAP4 ADD CALLDATALOAD SWAP4 POP POP POP JUMP JUMPDEST PUSH1 0x0 PUSH1 0x20 DUP3 DUP5 SUB SLT ISZERO PUSH2 0x1677 JUMPI PUSH1 0x0 DUP1 REVERT JUMPDEST POP CALLDATALOAD SWAP2 SWAP1 POP JUMP JUMPDEST PUSH1 0x0 DUP1 PUSH1 0x0 PUSH1 0x60 DUP5 DUP7 SUB SLT ISZERO PUSH2 0x1693 JUMPI PUSH1 0x0 DUP1 REVERT JUMPDEST PUSH2 0x169C DUP5 PUSH2 0x161F JUMP JUMPDEST SWAP3 POP PUSH2 0x16AA PUSH1 0x20 DUP6 ADD PUSH2 0x161F JUMP JUMPDEST SWAP2 POP PUSH1 0x40 DUP5 ADD CALLDATALOAD SWAP1 POP SWAP3 POP SWAP3 POP SWAP3 JUMP JUMPDEST PUSH1 0x0 DUP1 PUSH1 0x0 PUSH1 0x60 DUP5 DUP7 SUB SLT ISZERO PUSH2 0x16CF JUMPI PUSH1 0x0 DUP1 REVERT JUMPDEST PUSH2 0x16D8 DUP5 PUSH2 0x161F JUMP JUMPDEST SWAP3 POP PUSH1 0x20 DUP5 ADD CALLDATALOAD SWAP2 POP PUSH2 0x16ED PUSH1 0x40 DUP6 ADD PUSH2 0x161F JUMP JUMPDEST SWAP1 POP SWAP3 POP SWAP3 POP SWAP3 JUMP JUMPDEST PUSH1 0x0 PUSH1 0x20 DUP3 DUP5 SUB SLT ISZERO PUSH2 0x1708 JUMPI PUSH1 0x0 DUP1 REVERT JUMPDEST PUSH2 0x1711 DUP3 PUSH2 0x161F JUMP JUMPDEST SWAP4 SWAP3 POP POP POP JUMP JUMPDEST PUSH1 0x0 DUP1 PUSH1 0x40 DUP4 DUP6 SUB SLT ISZERO PUSH2 0x172B JUMPI PUSH1 0x0 DUP1 REVERT JUMPDEST PUSH2 0x1734 DUP4 PUSH2 0x161F JUMP JUMPDEST SWAP2 POP PUSH2 0x1742 PUSH1 0x20 DUP5 ADD PUSH2 0x161F JUMP JUMPDEST SWAP1 POP SWAP3 POP SWAP3 SWAP1 POP JUMP JUMPDEST PUSH1 0x1 DUP2 DUP2 SHR SWAP1 DUP3 AND DUP1 PUSH2 0x175F JUMPI PUSH1 0x7F DUP3 AND SWAP2 POP JUMPDEST PUSH1 0x20 DUP3 LT DUP2 SUB PUSH2 0x177F JUMPI PUSH4 0x4E487B71 PUSH1 0xE0 SHL PUSH1 0x0 MSTORE PUSH1 0x22 PUSH1 0x4 MSTORE PUSH1 0x24 PUSH1 0x0 REVERT JUMPDEST POP SWAP2 SWAP1 POP JUMP JUMPDEST PUSH4 0x4E487B71 PUSH1 0xE0 SHL PUSH1 0x0 MSTORE PUSH1 0x11 PUSH1 0x4 MSTORE PUSH1 0x24 PUSH1 0x0 REVERT JUMPDEST DUP1 DUP3 MUL DUP2 ISZERO DUP3 DUP3 DIV DUP5 EQ OR PUSH2 0x439 JUMPI PUSH2 0x439 PUSH2 0x1785 JUMP JUMPDEST PUSH1 0x0 DUP3 PUSH2 0x17CF JUMPI PUSH4 0x4E487B71 PUSH1 0xE0 SHL PUSH1 0x0 MSTORE PUSH1 0x12 PUSH1 0x4 MSTORE PUSH1 0x24 PUSH1 0x0 REVERT JUMPDEST POP DIV SWAP1 JUMP JUMPDEST DUP2 DUP2 SUB DUP2 DUP2 GT ISZERO PUSH2 0x439 JUMPI PUSH2 0x439 PUSH2 0x1785 JUMP JUMPDEST PUSH1 0x0 PUSH1 0x20 DUP3 DUP5 SUB SLT ISZERO PUSH2 0x17F9 JUMPI PUSH1 0x0 DUP1 REVERT JUMPDEST DUP2 MLOAD DUP1 ISZERO ISZERO DUP2 EQ PUSH2 0x1711 JUMPI PUSH1 0x0 DUP1 REVERT JUMPDEST DUP1 DUP3 ADD DUP1 DUP3 GT ISZERO PUSH2 0x439 JUMPI PUSH2 0x439 PUSH2 0x1785 JUMP JUMPDEST PUSH1 0x1 PUSH1 0x1 PUSH1 0xA0 SHL SUB SWAP4 DUP5 AND DUP2 MSTORE SWAP2 SWAP1 SWAP3 AND PUSH1 0x20 DUP3 ADD MSTORE PUSH1 0x40 DUP2 ADD SWAP2 SWAP1 SWAP2 MSTORE PUSH1 0x60 ADD SWAP1 JUMP INVALID LOG2 PUSH5 0x6970667358 0x22 SLT KECCAK256 MSTORE8 0xED 0xD7 DUP16 0xEB 0xEF 0x2F CREATE2 0xC0 0xBF EQ PUSH12 0x58163EC2C8B32F4A96EE393E 0xBD 0xA6 PUSH3 0x85A50 0xC7 PUSH7 0x64736F6C634300 ADDMOD EQ STOP CALLER "},"methodIdentifiers":{"addLiquidity(uint256)":"51c6590a","allowance(address,address)":"dd62ed3e","approve(address,uint256)":"095ea7b3","balanceOf(address)":"70a08231","compareOutputs(address,uint256,address)":"7db9e37f","decimals()":"313ce567","getAmountOut(address,uint256,address)":"ff9c8ac6","getAmountOutWithoutFee(address,uint256,address)":"4fa186ba","getRequiredAmount1(uint256)":"929f8c75","getReserves()":"0902f1ac","getToken0Address()":"8f3504d7","getToken1Address()":"b9559846","name()":"06fdde03","swap(address,uint256,address)":"6d069a67","symbol()":"95d89b41","totalSupply()":"18160ddd","transfer(address,uint256)":"a9059cbb","transferFrom(address,address,uint256)":"23b872dd","withdrawLiquidity(uint256)":"0a861f2a"}}}}}