{
  "_format": "hh-sol-artifact-1",
  "contractName": "Pool",
  "sourceName": "contracts/Pool.sol",
  "abi": [
    {
      "inputs": [
        {
          "internalType": "address",
          "name": "token0",
          "type": "address"
        },
        {
          "internalType": "address",
          "name": "token1",
          "type": "address"
        }
      ],
      "stateMutability": "nonpayable",
      "type": "constructor"
    },
    {
      "inputs": [
        {
          "internalType": "address",
          "name": "spender",
          "type": "address"
        },
        {
          "internalType": "uint256",
          "name": "allowance",
          "type": "uint256"
        },
        {
          "internalType": "uint256",
          "name": "needed",
          "type": "uint256"
        }
      ],
      "name": "ERC20InsufficientAllowance",
      "type": "error"
    },
    {
      "inputs": [
        {
          "internalType": "address",
          "name": "sender",
          "type": "address"
        },
        {
          "internalType": "uint256",
          "name": "balance",
          "type": "uint256"
        },
        {
          "internalType": "uint256",
          "name": "needed",
          "type": "uint256"
        }
      ],
      "name": "ERC20InsufficientBalance",
      "type": "error"
    },
    {
      "inputs": [
        {
          "internalType": "address",
          "name": "approver",
          "type": "address"
        }
      ],
      "name": "ERC20InvalidApprover",
      "type": "error"
    },
    {
      "inputs": [
        {
          "internalType": "address",
          "name": "receiver",
          "type": "address"
        }
      ],
      "name": "ERC20InvalidReceiver",
      "type": "error"
    },
    {
      "inputs": [
        {
          "internalType": "address",
          "name": "sender",
          "type": "address"
        }
      ],
      "name": "ERC20InvalidSender",
      "type": "error"
    },
    {
      "inputs": [
        {
          "internalType": "address",
          "name": "spender",
          "type": "address"
        }
      ],
      "name": "ERC20InvalidSpender",
      "type": "error"
    },
    {
      "inputs": [],
      "name": "ReentrancyGuardReentrantCall",
      "type": "error"
    },
    {
      "anonymous": false,
      "inputs": [
        {
          "indexed": true,
          "internalType": "uint256",
          "name": "lpToken",
          "type": "uint256"
        },
        {
          "indexed": false,
          "internalType": "address",
          "name": "token0",
          "type": "address"
        },
        {
          "indexed": true,
          "internalType": "uint256",
          "name": "amount0",
          "type": "uint256"
        },
        {
          "indexed": false,
          "internalType": "address",
          "name": "token1",
          "type": "address"
        },
        {
          "indexed": true,
          "internalType": "uint256",
          "name": "amount1",
          "type": "uint256"
        }
      ],
      "name": "AddedLiquidity",
      "type": "event"
    },
    {
      "anonymous": false,
      "inputs": [
        {
          "indexed": true,
          "internalType": "address",
          "name": "owner",
          "type": "address"
        },
        {
          "indexed": true,
          "internalType": "address",
          "name": "spender",
          "type": "address"
        },
        {
          "indexed": false,
          "internalType": "uint256",
          "name": "value",
          "type": "uint256"
        }
      ],
      "name": "Approval",
      "type": "event"
    },
    {
      "anonymous": false,
      "inputs": [
        {
          "indexed": false,
          "internalType": "address",
          "name": "tokenIn",
          "type": "address"
        },
        {
          "indexed": true,
          "internalType": "uint256",
          "name": "amountIn",
          "type": "uint256"
        },
        {
          "indexed": false,
          "internalType": "address",
          "name": "tokenOut",
          "type": "address"
        },
        {
          "indexed": true,
          "internalType": "uint256",
          "name": "amountOut",
          "type": "uint256"
        },
        {
          "indexed": false,
          "internalType": "uint256",
          "name": "feeAmount",
          "type": "uint256"
        }
      ],
      "name": "Swapped",
      "type": "event"
    },
    {
      "anonymous": false,
      "inputs": [
        {
          "indexed": true,
          "internalType": "address",
          "name": "from",
          "type": "address"
        },
        {
          "indexed": true,
          "internalType": "address",
          "name": "to",
          "type": "address"
        },
        {
          "indexed": false,
          "internalType": "uint256",
          "name": "value",
          "type": "uint256"
        }
      ],
      "name": "Transfer",
      "type": "event"
    },
    {
      "anonymous": false,
      "inputs": [
        {
          "indexed": true,
          "internalType": "uint256",
          "name": "lpToken",
          "type": "uint256"
        },
        {
          "indexed": false,
          "internalType": "address",
          "name": "token0",
          "type": "address"
        },
        {
          "indexed": true,
          "internalType": "uint256",
          "name": "amount0",
          "type": "uint256"
        },
        {
          "indexed": false,
          "internalType": "address",
          "name": "token1",
          "type": "address"
        },
        {
          "indexed": true,
          "internalType": "uint256",
          "name": "amount1",
          "type": "uint256"
        }
      ],
      "name": "WithdrewLiquidity",
      "type": "event"
    },
    {
      "inputs": [
        {
          "internalType": "uint256",
          "name": "amount0",
          "type": "uint256"
        }
      ],
      "name": "addLiquidity",
      "outputs": [],
      "stateMutability": "nonpayable",
      "type": "function"
    },
    {
      "inputs": [
        {
          "internalType": "address",
          "name": "owner",
          "type": "address"
        },
        {
          "internalType": "address",
          "name": "spender",
          "type": "address"
        }
      ],
      "name": "allowance",
      "outputs": [
        {
          "internalType": "uint256",
          "name": "",
          "type": "uint256"
        }
      ],
      "stateMutability": "view",
      "type": "function"
    },
    {
      "inputs": [
        {
          "internalType": "address",
          "name": "spender",
          "type": "address"
        },
        {
          "internalType": "uint256",
          "name": "value",
          "type": "uint256"
        }
      ],
      "name": "approve",
      "outputs": [
        {
          "internalType": "bool",
          "name": "",
          "type": "bool"
        }
      ],
      "stateMutability": "nonpayable",
      "type": "function"
    },
    {
      "inputs": [
        {
          "internalType": "address",
          "name": "account",
          "type": "address"
        }
      ],
      "name": "balanceOf",
      "outputs": [
        {
          "internalType": "uint256",
          "name": "",
          "type": "uint256"
        }
      ],
      "stateMutability": "view",
      "type": "function"
    },
    {
      "inputs": [
        {
          "internalType": "address",
          "name": "tokenIn",
          "type": "address"
        },
        {
          "internalType": "uint256",
          "name": "amountIn",
          "type": "uint256"
        },
        {
          "internalType": "address",
          "name": "tokenOut",
          "type": "address"
        }
      ],
      "name": "compareOutputs",
      "outputs": [
        {
          "internalType": "uint256",
          "name": "withFee",
          "type": "uint256"
        },
        {
          "internalType": "uint256",
          "name": "withoutFee",
          "type": "uint256"
        },
        {
          "internalType": "uint256",
          "name": "feeDifference",
          "type": "uint256"
        }
      ],
      "stateMutability": "view",
      "type": "function"
    },
    {
      "inputs": [],
      "name": "decimals",
      "outputs": [
        {
          "internalType": "uint8",
          "name": "",
          "type": "uint8"
        }
      ],
      "stateMutability": "view",
      "type": "function"
    },
    {
      "inputs": [
        {
          "internalType": "address",
          "name": "tokenIn",
          "type": "address"
        },
        {
          "internalType": "uint256",
          "name": "amountIn",
          "type": "uint256"
        },
        {
          "internalType": "address",
          "name": "tokenOut",
          "type": "address"
        }
      ],
      "name": "getAmountOut",
      "outputs": [
        {
          "internalType": "uint256",
          "name": "",
          "type": "uint256"
        }
      ],
      "stateMutability": "view",
      "type": "function"
    },
    {
      "inputs": [
        {
          "internalType": "address",
          "name": "tokenIn",
          "type": "address"
        },
        {
          "internalType": "uint256",
          "name": "amountIn",
          "type": "uint256"
        },
        {
          "internalType": "address",
          "name": "tokenOut",
          "type": "address"
        }
      ],
      "name": "getAmountOutWithoutFee",
      "outputs": [
        {
          "internalType": "uint256",
          "name": "",
          "type": "uint256"
        }
      ],
      "stateMutability": "view",
      "type": "function"
    },
    {
      "inputs": [
        {
          "internalType": "uint256",
          "name": "amount0",
          "type": "uint256"
        }
      ],
      "name": "getRequiredAmount1",
      "outputs": [
        {
          "internalType": "uint256",
          "name": "",
          "type": "uint256"
        }
      ],
      "stateMutability": "view",
      "type": "function"
    },
    {
      "inputs": [],
      "name": "getReserves",
      "outputs": [
        {
          "internalType": "uint256",
          "name": "",
          "type": "uint256"
        },
        {
          "internalType": "uint256",
          "name": "",
          "type": "uint256"
        }
      ],
      "stateMutability": "view",
      "type": "function"
    },
    {
      "inputs": [],
      "name": "getToken0Address",
      "outputs": [
        {
          "internalType": "address",
          "name": "",
          "type": "address"
        }
      ],
      "stateMutability": "view",
      "type": "function"
    },
    {
      "inputs": [],
      "name": "getToken1Address",
      "outputs": [
        {
          "internalType": "address",
          "name": "",
          "type": "address"
        }
      ],
      "stateMutability": "view",
      "type": "function"
    },
    {
      "inputs": [],
      "name": "name",
      "outputs": [
        {
          "internalType": "string",
          "name": "",
          "type": "string"
        }
      ],
      "stateMutability": "view",
      "type": "function"
    },
    {
      "inputs": [
        {
          "internalType": "address",
          "name": "tokenIn",
          "type": "address"
        },
        {
          "internalType": "uint256",
          "name": "amountIn",
          "type": "uint256"
        },
        {
          "internalType": "address",
          "name": "tokenOut",
          "type": "address"
        }
      ],
      "name": "swap",
      "outputs": [],
      "stateMutability": "nonpayable",
      "type": "function"
    },
    {
      "inputs": [],
      "name": "symbol",
      "outputs": [
        {
          "internalType": "string",
          "name": "",
          "type": "string"
        }
      ],
      "stateMutability": "view",
      "type": "function"
    },
    {
      "inputs": [],
      "name": "totalSupply",
      "outputs": [
        {
          "internalType": "uint256",
          "name": "",
          "type": "uint256"
        }
      ],
      "stateMutability": "view",
      "type": "function"
    },
    {
      "inputs": [
        {
          "internalType": "address",
          "name": "to",
          "type": "address"
        },
        {
          "internalType": "uint256",
          "name": "value",
          "type": "uint256"
        }
      ],
      "name": "transfer",
      "outputs": [
        {
          "internalType": "bool",
          "name": "",
          "type": "bool"
        }
      ],
      "stateMutability": "nonpayable",
      "type": "function"
    },
    {
      "inputs": [
        {
          "internalType": "address",
          "name": "from",
          "type": "address"
        },
        {
          "internalType": "address",
          "name": "to",
          "type": "address"
        },
        {
          "internalType": "uint256",
          "name": "value",
          "type": "uint256"
        }
      ],
      "name": "transferFrom",
      "outputs": [
        {
          "internalType": "bool",
          "name": "",
          "type": "bool"
        }
      ],
      "stateMutability": "nonpayable",
      "type": "function"
    },
    {
      "inputs": [
        {
          "internalType": "uint256",
          "name": "lpAmount",
          "type": "uint256"
        }
      ],
      "name": "withdrawLiquidity",
      "outputs": [],
      "stateMutability": "nonpayable",
      "type": "function"
    }
  ],
  "bytecode": "0x6101006040523480156200001257600080fd5b5060405162001bcc38038062001bcc8339810160408190526200003591620000e0565b6040518060400160405280600781526020016626282a37b5b2b760c91b8152506040518060400160405280600381526020016213141560ea1b81525081818160039081620000849190620001bd565b506004620000938282620001bd565b505060016005555050506001600160a01b039182166080819052911660a081905260c09190915260e05262000289565b80516001600160a01b0381168114620000db57600080fd5b919050565b60008060408385031215620000f457600080fd5b620000ff83620000c3565b91506200010f60208401620000c3565b90509250929050565b634e487b7160e01b600052604160045260246000fd5b600181811c908216806200014357607f821691505b6020821081036200016457634e487b7160e01b600052602260045260246000fd5b50919050565b601f821115620001b857600081815260208120601f850160051c81016020861015620001935750805b601f850160051c820191505b81811015620001b4578281556001016200019f565b5050505b505050565b81516001600160401b03811115620001d957620001d962000118565b620001f181620001ea84546200012e565b846200016a565b602080601f831160018114620002295760008415620002105750858301515b600019600386901b1c1916600185901b178555620001b4565b600085815260208120601f198616915b828110156200025a5788860151825594840194600190910190840162000239565b5085821015620002795787850151600019600388901b60f8161c191681555b5050505050600190811b01905550565b60805160a05160c05160e0516118766200035660003960008181610181015281816103230152818161055c015281816106080152818161082a01528181610be301528181610c5901528181610d4e01528181610dfb015261115701526000818161014e015281816102bb01528181610509015281816105bb015281816108050152818161097d01528181610ac001528181610c3401528181610d1301528181610dc0015261112401526000818161073d0152610b1a01526000818161066701526109f601526118766000f3fe608060405234801561001057600080fd5b50600436106101215760003560e01c80636d069a67116100ad57806395d89b411161007157806395d89b4114610306578063a9059cbb1461030e578063b955984614610321578063dd62ed3e14610347578063ff9c8ac61461038057600080fd5b80636d069a671461024f57806370a08231146102625780637db9e37f1461028b5780638f3504d7146102b9578063929f8c75146102f357600080fd5b806318160ddd116100f457806318160ddd146101f557806323b872dd14610207578063313ce5671461021a5780634fa186ba1461022957806351c6590a1461023c57600080fd5b806306fdde03146101265780630902f1ac14610144578063095ea7b3146101bd5780630a861f2a146101e0575b600080fd5b61012e610393565b60405161013b91906115d1565b60405180910390f35b6001600160a01b037f00000000000000000000000000000000000000000000000000000000000000008116600090815260066020526040808220547f000000000000000000000000000000000000000000000000000000000000000090931682529020546040805192835260208301919091520161013b565b6101d06101cb36600461163b565b610425565b604051901515815260200161013b565b6101f36101ee366004611665565b61043f565b005b6002545b60405190815260200161013b565b6101d061021536600461167e565b610890565b6040516012815260200161013b565b6101f96102373660046116ba565b6108b4565b6101f361024a366004611665565b610904565b6101f361025d3660046116ba565b610cbb565b6101f96102703660046116f6565b6001600160a01b031660009081526020819052604090205490565b61029e6102993660046116ba565b6110e6565b6040805193845260208401929092529082015260600161013b565b7f00000000000000000000000000000000000000000000000000000000000000005b6040516001600160a01b03909116815260200161013b565b6101f9610301366004611665565b61111a565b61012e6111b9565b6101d061031c36600461163b565b6111c8565b7f00000000000000000000000000000000000000000000000000000000000000006102db565b6101f9610355366004611718565b6001600160a01b03918216600090815260016020908152604080832093909416825291909152205490565b6101f961038e3660046116ba565b6111d6565b6060600380546103a29061174b565b80601f01602080910402602001604051908101604052809291908181526020018280546103ce9061174b565b801561041b5780601f106103f05761010080835404028352916020019161041b565b820191906000526020600020905b8154815290600101906020018083116103fe57829003601f168201915b5050505050905090565b60003361043381858561124d565b60019150505b92915050565b61044761125a565b6000811161049c5760405162461bcd60e51b815260206004820152601d60248201527f416d6f756e74206d7573742062652067726561746572207468616e203000000060448201526064015b60405180910390fd5b336000908152602081905260409020548111156104f45760405162461bcd60e51b8152602060048201526016602482015275496e73756666696369656e74204c5020746f6b656e7360501b6044820152606401610493565b60006104ff60025490565b6001600160a01b037f000000000000000000000000000000000000000000000000000000000000000016600090815260066020526040812054919250908290610548908561179b565b61055291906117b2565b6001600160a01b037f00000000000000000000000000000000000000000000000000000000000000001660009081526006602052604081205491925090839061059b908661179b565b6105a591906117b2565b90506105b13385611284565b6001600160a01b037f000000000000000000000000000000000000000000000000000000000000000016600090815260066020526040812080548492906105f99084906117d4565b90915550506001600160a01b037f000000000000000000000000000000000000000000000000000000000000000016600090815260066020526040812080548392906106469084906117d4565b909155505060405163a9059cbb60e01b8152336004820152602481018390527f00000000000000000000000000000000000000000000000000000000000000006001600160a01b03169063a9059cbb906044016020604051808303816000875af11580156106b8573d6000803e3d6000fd5b505050506040513d601f19601f820116820180604052508101906106dc91906117e7565b6107215760405162461bcd60e51b8152602060048201526016602482015275151c985b9cd9995c881d1bdad95b8c0819985a5b195960521b6044820152606401610493565b60405163a9059cbb60e01b8152336004820152602481018290527f00000000000000000000000000000000000000000000000000000000000000006001600160a01b03169063a9059cbb906044016020604051808303816000875af115801561078e573d6000803e3d6000fd5b505050506040513d601f19601f820116820180604052508101906107b291906117e7565b6107f75760405162461bcd60e51b8152602060048201526016602482015275151c985b9cd9995c881d1bdad95b8c4819985a5b195960521b6044820152606401610493565b604080516001600160a01b037f0000000000000000000000000000000000000000000000000000000000000000811682527f00000000000000000000000000000000000000000000000000000000000000001660208201528291849187917f62121ad459acfb016cc0335a219566240380160df893109729d63ab4ce259618910160405180910390a450505061088d6001600555565b50565b60003361089e8582856112be565b6108a985858561133d565b506001949350505050565b6001600160a01b03808216600090815260066020526040808220549286168252812054909190826108e58683611809565b6108ef878561179b565b6108f991906117b2565b979650505050505050565b61090c61125a565b6000811161095c5760405162461bcd60e51b815260206004820152601d60248201527f416d6f756e74206d7573742062652067726561746572207468616e20300000006044820152606401610493565b60006109678261111a565b905060008061097560025490565b11156109d2577f00000000000000000000000000000000000000000000000000000000000000006001600160a01b03166000908152600660205260409020546002546109c1908561179b565b6109cb91906117b2565b90506109d5565b50815b6109df338261139c565b6040516323b872dd60e01b81526001600160a01b037f000000000000000000000000000000000000000000000000000000000000000016906323b872dd90610a2f9033903090889060040161181c565b6020604051808303816000875af1158015610a4e573d6000803e3d6000fd5b505050506040513d601f19601f82011682018060405250810190610a7291906117e7565b610ab65760405162461bcd60e51b8152602060048201526015602482015274151c985b9cd9995c88105b1c1a184819985a5b1959605a1b6044820152606401610493565b6001600160a01b037f00000000000000000000000000000000000000000000000000000000000000001660009081526006602052604081208054859290610afe908490611809565b90915550506040516323b872dd60e01b81526001600160a01b037f000000000000000000000000000000000000000000000000000000000000000016906323b872dd90610b539033903090879060040161181c565b6020604051808303816000875af1158015610b72573d6000803e3d6000fd5b505050506040513d601f19601f82011682018060405250810190610b9691906117e7565b610bd95760405162461bcd60e51b8152602060048201526014602482015273151c985b9cd9995c8810995d184819985a5b195960621b6044820152606401610493565b6001600160a01b037f00000000000000000000000000000000000000000000000000000000000000001660009081526006602052604081208054849290610c21908490611809565b9091555050604080516001600160a01b037f0000000000000000000000000000000000000000000000000000000000000000811682527f00000000000000000000000000000000000000000000000000000000000000001660208201528391859184917f86c3929a230b573aa47cd83759aed11b800d147abc23e246dfeb5ebbd7a110e3910160405180910390a4505061088d6001600555565b610cc361125a565b806001600160a01b0316836001600160a01b031603610d115760405162461bcd60e51b815260206004820152600a60248201526929b0b6b2903a37b5b2b760b11b6044820152606401610493565b7f00000000000000000000000000000000000000000000000000000000000000006001600160a01b0316836001600160a01b03161480610d8257507f00000000000000000000000000000000000000000000000000000000000000006001600160a01b0316836001600160a01b0316145b610dbe5760405162461bcd60e51b815260206004820152600d60248201526c24b73b30b634b2103a37b5b2b760991b6044820152606401610493565b7f00000000000000000000000000000000000000000000000000000000000000006001600160a01b0316816001600160a01b03161480610e2f57507f00000000000000000000000000000000000000000000000000000000000000006001600160a01b0316816001600160a01b0316145b610e6b5760405162461bcd60e51b815260206004820152600d60248201526c24b73b30b634b2103a37b5b2b760991b6044820152606401610493565b60008211610ea95760405162461bcd60e51b815260206004820152600b60248201526a16995c9bc8185b5bdd5b9d60aa1b6044820152606401610493565b60006103e8610eb960038561179b565b610ec391906117b2565b90506000610ed182856117d4565b90506000610ee08683866111d6565b6040516323b872dd60e01b81529091506001600160a01b038716906323b872dd90610f1390339030908a9060040161181c565b6020604051808303816000875af1158015610f32573d6000803e3d6000fd5b505050506040513d601f19601f82011682018060405250810190610f5691906117e7565b610f905760405162461bcd60e51b815260206004820152600b60248201526a14ddd85c0811985a5b195960aa1b6044820152606401610493565b60405163a9059cbb60e01b8152336004820152602481018290526001600160a01b0385169063a9059cbb906044016020604051808303816000875af1158015610fdd573d6000803e3d6000fd5b505050506040513d601f19601f8201168201806040525081019061100191906117e7565b61103b5760405162461bcd60e51b815260206004820152600b60248201526a14ddd85c0811985a5b195960aa1b6044820152606401610493565b6001600160a01b03861660009081526006602052604081208054879290611063908490611809565b90915550506001600160a01b038416600090815260066020526040812080548392906110909084906117d4565b9250508190555080857fd83a63a0ebf8fb6a344f0e3dc86dfc975e6009f82e455acc6622cc3fd7c5928d8887876040516110cc9392919061181c565b60405180910390a35050506110e16001600555565b505050565b60008060006110f68686866111d6565b92506111038686866108b4565b915061110f83836117d4565b905093509350939050565b6001600160a01b037f00000000000000000000000000000000000000000000000000000000000000008116600090815260066020526040808220547f0000000000000000000000000000000000000000000000000000000000000000909316825281205490919081158061118c575080155b156111a45761119c60028561179b565b949350505050565b816111af828661179b565b61119c91906117b2565b6060600480546103a29061174b565b60003361043381858561133d565b6001600160a01b03808216600090815260066020526040808220549286168252812054909190826103e861120b6003826117d4565b611215908861179b565b61121f91906117b2565b9050600061122d8284611809565b611237838661179b565b61124191906117b2565b98975050505050505050565b6110e183838360016113d2565b60026005540361127d57604051633ee5aeb560e01b815260040160405180910390fd5b6002600555565b6001600160a01b0382166112ae57604051634b637e8f60e11b815260006004820152602401610493565b6112ba826000836114a7565b5050565b6001600160a01b03838116600090815260016020908152604080832093861683529290522054600019811015611337578181101561132857604051637dc7a0d960e11b81526001600160a01b03841660048201526024810182905260448101839052606401610493565b611337848484840360006113d2565b50505050565b6001600160a01b03831661136757604051634b637e8f60e11b815260006004820152602401610493565b6001600160a01b0382166113915760405163ec442f0560e01b815260006004820152602401610493565b6110e18383836114a7565b6001600160a01b0382166113c65760405163ec442f0560e01b815260006004820152602401610493565b6112ba600083836114a7565b6001600160a01b0384166113fc5760405163e602df0560e01b815260006004820152602401610493565b6001600160a01b03831661142657604051634a1406b160e11b815260006004820152602401610493565b6001600160a01b038085166000908152600160209081526040808320938716835292905220829055801561133757826001600160a01b0316846001600160a01b03167f8c5be1e5ebec7d5bd14f71427d1e84f3dd0314c0f7b2291e5b200ac8c7c3b9258460405161149991815260200190565b60405180910390a350505050565b6001600160a01b0383166114d25780600260008282546114c79190611809565b909155506115449050565b6001600160a01b038316600090815260208190526040902054818110156115255760405163391434e360e21b81526001600160a01b03851660048201526024810182905260448101839052606401610493565b6001600160a01b03841660009081526020819052604090209082900390555b6001600160a01b0382166115605760028054829003905561157f565b6001600160a01b03821660009081526020819052604090208054820190555b816001600160a01b0316836001600160a01b03167fddf252ad1be2c89b69c2b068fc378daa952ba7f163c4a11628f55a4df523b3ef836040516115c491815260200190565b60405180910390a3505050565b600060208083528351808285015260005b818110156115fe578581018301518582016040015282016115e2565b506000604082860101526040601f19601f8301168501019250505092915050565b80356001600160a01b038116811461163657600080fd5b919050565b6000806040838503121561164e57600080fd5b6116578361161f565b946020939093013593505050565b60006020828403121561167757600080fd5b5035919050565b60008060006060848603121561169357600080fd5b61169c8461161f565b92506116aa6020850161161f565b9150604084013590509250925092565b6000806000606084860312156116cf57600080fd5b6116d88461161f565b9250602084013591506116ed6040850161161f565b90509250925092565b60006020828403121561170857600080fd5b6117118261161f565b9392505050565b6000806040838503121561172b57600080fd5b6117348361161f565b91506117426020840161161f565b90509250929050565b600181811c9082168061175f57607f821691505b60208210810361177f57634e487b7160e01b600052602260045260246000fd5b50919050565b634e487b7160e01b600052601160045260246000fd5b808202811582820484141761043957610439611785565b6000826117cf57634e487b7160e01b600052601260045260246000fd5b500490565b8181038181111561043957610439611785565b6000602082840312156117f957600080fd5b8151801515811461171157600080fd5b8082018082111561043957610439611785565b6001600160a01b03938416815291909216602082015260408101919091526060019056fea264697066735822122053edd78febef2ff5c0bf146b58163ec2c8b32f4a96ee393ebda662085a50c76664736f6c63430008140033",
  "linkReferences": {},
  "deployedLinkReferences": {}
}